{
  "_format": "hh-sol-artifact-1",
  "contractName": "Token",
  "sourceName": "contracts/Token.sol",
  "abi": [
    {
      "inputs": [
        {
          "internalType": "string",
          "name": "name_",
          "type": "string"
        },
        {
          "internalType": "string",
          "name": "symbol_",
          "type": "string"
        },
        {
          "internalType": "address",
          "name": "_owner",
          "type": "address"
        },
        {
          "internalType": "uint256",
          "name": "initialSupply",
          "type": "uint256"
        }
      ],
      "stateMutability": "nonpayable",
      "type": "constructor"
    },
    {
      "anonymous": false,
      "inputs": [
        {
          "indexed": true,
          "internalType": "address",
          "name": "owner",
          "type": "address"
        },
        {
          "indexed": true,
          "internalType": "address",
          "name": "spender",
          "type": "address"
        },
        {
          "indexed": false,
          "internalType": "uint256",
          "name": "value",
          "type": "uint256"
        }
      ],
      "name": "Approval",
      "type": "event"
    },
    {
      "anonymous": false,
      "inputs": [
        {
          "indexed": true,
          "internalType": "address",
          "name": "previousOwner",
          "type": "address"
        },
        {
          "indexed": true,
          "internalType": "address",
          "name": "newOwner",
          "type": "address"
        }
      ],
      "name": "OwnershipTransferred",
      "type": "event"
    },
    {
      "anonymous": false,
      "inputs": [
        {
          "indexed": true,
          "internalType": "address",
          "name": "from",
          "type": "address"
        },
        {
          "indexed": true,
          "internalType": "address",
          "name": "to",
          "type": "address"
        },
        {
          "indexed": false,
          "internalType": "uint256",
          "name": "value",
          "type": "uint256"
        }
      ],
      "name": "Transfer",
      "type": "event"
    },
    {
      "inputs": [],
      "name": "MIN_WITHDRAW_PERIOD",
      "outputs": [
        {
          "internalType": "uint256",
          "name": "",
          "type": "uint256"
        }
      ],
      "stateMutability": "view",
      "type": "function"
    },
    {
      "inputs": [],
      "name": "YEAR_HOURS",
      "outputs": [
        {
          "internalType": "uint256",
          "name": "",
          "type": "uint256"
        }
      ],
      "stateMutability": "view",
      "type": "function"
    },
    {
      "inputs": [
        {
          "internalType": "address",
          "name": "owner",
          "type": "address"
        },
        {
          "internalType": "address",
          "name": "spender",
          "type": "address"
        }
      ],
      "name": "allowance",
      "outputs": [
        {
          "internalType": "uint256",
          "name": "",
          "type": "uint256"
        }
      ],
      "stateMutability": "view",
      "type": "function"
    },
    {
      "inputs": [
        {
          "internalType": "address",
          "name": "spender",
          "type": "address"
        },
        {
          "internalType": "uint256",
          "name": "amount",
          "type": "uint256"
        }
      ],
      "name": "approve",
      "outputs": [
        {
          "internalType": "bool",
          "name": "",
          "type": "bool"
        }
      ],
      "stateMutability": "nonpayable",
      "type": "function"
    },
    {
      "inputs": [
        {
          "internalType": "address",
          "name": "account",
          "type": "address"
        }
      ],
      "name": "balanceOf",
      "outputs": [
        {
          "internalType": "uint256",
          "name": "",
          "type": "uint256"
        }
      ],
      "stateMutability": "view",
      "type": "function"
    },
    {
      "inputs": [],
      "name": "claim",
      "outputs": [],
      "stateMutability": "nonpayable",
      "type": "function"
    },
    {
      "inputs": [
        {
          "internalType": "uint256",
          "name": "amount",
          "type": "uint256"
        }
      ],
      "name": "claimAndWithdraw",
      "outputs": [],
      "stateMutability": "nonpayable",
      "type": "function"
    },
    {
      "inputs": [],
      "name": "decimals",
      "outputs": [
        {
          "internalType": "uint8",
          "name": "",
          "type": "uint8"
        }
      ],
      "stateMutability": "view",
      "type": "function"
    },
    {
      "inputs": [
        {
          "internalType": "address",
          "name": "spender",
          "type": "address"
        },
        {
          "internalType": "uint256",
          "name": "subtractedValue",
          "type": "uint256"
        }
      ],
      "name": "decreaseAllowance",
      "outputs": [
        {
          "internalType": "bool",
          "name": "",
          "type": "bool"
        }
      ],
      "stateMutability": "nonpayable",
      "type": "function"
    },
    {
      "inputs": [
        {
          "internalType": "address",
          "name": "stakeHolder",
          "type": "address"
        }
      ],
      "name": "getStake",
      "outputs": [
        {
          "components": [
            {
              "internalType": "uint256",
              "name": "amount",
              "type": "uint256"
            },
            {
              "internalType": "uint256",
              "name": "sinceStaking",
              "type": "uint256"
            },
            {
              "internalType": "uint256",
              "name": "sinceClaimed",
              "type": "uint256"
            },
            {
              "internalType": "uint256",
              "name": "withdrawnAmount",
              "type": "uint256"
            },
            {
              "internalType": "uint256",
              "name": "toWithdraw",
              "type": "uint256"
            },
            {
              "internalType": "uint256",
              "name": "reward",
              "type": "uint256"
            },
            {
              "internalType": "uint256",
              "name": "freezeAmount",
              "type": "uint256"
            }
          ],
          "internalType": "struct StakeableToken.Stake",
          "name": "",
          "type": "tuple"
        }
      ],
      "stateMutability": "view",
      "type": "function"
    },
    {
      "inputs": [
        {
          "internalType": "address",
          "name": "spender",
          "type": "address"
        },
        {
          "internalType": "uint256",
          "name": "addedValue",
          "type": "uint256"
        }
      ],
      "name": "increaseAllowance",
      "outputs": [
        {
          "internalType": "bool",
          "name": "",
          "type": "bool"
        }
      ],
      "stateMutability": "nonpayable",
      "type": "function"
    },
    {
      "inputs": [],
      "name": "name",
      "outputs": [
        {
          "internalType": "string",
          "name": "",
          "type": "string"
        }
      ],
      "stateMutability": "view",
      "type": "function"
    },
    {
      "inputs": [],
      "name": "owner",
      "outputs": [
        {
          "internalType": "address",
          "name": "",
          "type": "address"
        }
      ],
      "stateMutability": "view",
      "type": "function"
    },
    {
      "inputs": [],
      "name": "renounceOwnership",
      "outputs": [],
      "stateMutability": "nonpayable",
      "type": "function"
    },
    {
      "inputs": [
        {
          "internalType": "uint256",
          "name": "amount",
          "type": "uint256"
        }
      ],
      "name": "stake",
      "outputs": [],
      "stateMutability": "nonpayable",
      "type": "function"
    },
    {
      "inputs": [
        {
          "internalType": "address",
          "name": "stakeHolder",
          "type": "address"
        }
      ],
      "name": "stakeOf",
      "outputs": [
        {
          "internalType": "uint256",
          "name": "",
          "type": "uint256"
        }
      ],
      "stateMutability": "view",
      "type": "function"
    },
    {
      "inputs": [],
      "name": "symbol",
      "outputs": [
        {
          "internalType": "string",
          "name": "",
          "type": "string"
        }
      ],
      "stateMutability": "view",
      "type": "function"
    },
    {
      "inputs": [],
      "name": "totalSupply",
      "outputs": [
        {
          "internalType": "uint256",
          "name": "",
          "type": "uint256"
        }
      ],
      "stateMutability": "view",
      "type": "function"
    },
    {
      "inputs": [
        {
          "internalType": "address",
          "name": "recipient",
          "type": "address"
        },
        {
          "internalType": "uint256",
          "name": "amount",
          "type": "uint256"
        }
      ],
      "name": "transfer",
      "outputs": [
        {
          "internalType": "bool",
          "name": "",
          "type": "bool"
        }
      ],
      "stateMutability": "nonpayable",
      "type": "function"
    },
    {
      "inputs": [
        {
          "internalType": "address",
          "name": "sender",
          "type": "address"
        },
        {
          "internalType": "address",
          "name": "recipient",
          "type": "address"
        },
        {
          "internalType": "uint256",
          "name": "amount",
          "type": "uint256"
        }
      ],
      "name": "transferFrom",
      "outputs": [
        {
          "internalType": "bool",
          "name": "",
          "type": "bool"
        }
      ],
      "stateMutability": "nonpayable",
      "type": "function"
    },
    {
      "inputs": [
        {
          "internalType": "address",
          "name": "newOwner",
          "type": "address"
        }
      ],
      "name": "transferOwnership",
      "outputs": [],
      "stateMutability": "nonpayable",
      "type": "function"
    },
    {
      "inputs": [],
      "name": "withdraw",
      "outputs": [],
      "stateMutability": "nonpayable",
      "type": "function"
    }
  ],
  "bytecode": "0x60806040526121de600855620151806009553480156200001e57600080fd5b50604051620037723803806200377283398181016040528101906200004491906200045b565b838381818160039080519060200190620000609291906200030b565b508060049080519060200190620000799291906200030b565b5050506200009c62000090620000ba60201b60201c565b620000c260201b60201c565b5050620000b082826200018860201b60201c565b5050505062000818565b600033905090565b6000600560009054906101000a900473ffffffffffffffffffffffffffffffffffffffff16905081600560006101000a81548173ffffffffffffffffffffffffffffffffffffffff021916908373ffffffffffffffffffffffffffffffffffffffff1602179055508173ffffffffffffffffffffffffffffffffffffffff168173ffffffffffffffffffffffffffffffffffffffff167f8be0079c531659141344cd1fd0a4f28419497f9722a3daafe3b4186f6b6457e060405160405180910390a35050565b600073ffffffffffffffffffffffffffffffffffffffff168273ffffffffffffffffffffffffffffffffffffffff161415620001fb576040517f08c379a0000000000000000000000000000000000000000000000000000000008152600401620001f29062000531565b60405180910390fd5b6200020f600083836200030160201b60201c565b8060026000828254620002239190620005e0565b92505081905550806000808473ffffffffffffffffffffffffffffffffffffffff1673ffffffffffffffffffffffffffffffffffffffff16815260200190815260200160002060008282546200027a9190620005e0565b925050819055508173ffffffffffffffffffffffffffffffffffffffff16600073ffffffffffffffffffffffffffffffffffffffff167fddf252ad1be2c89b69c2b068fc378daa952ba7f163c4a11628f55a4df523b3ef83604051620002e1919062000553565b60405180910390a3620002fd600083836200030660201b60201c565b5050565b505050565b505050565b8280546200031990620006b1565b90600052602060002090601f0160209004810192826200033d576000855562000389565b82601f106200035857805160ff191683800117855562000389565b8280016001018555821562000389579182015b82811115620003885782518255916020019190600101906200036b565b5b5090506200039891906200039c565b5090565b5b80821115620003b75760008160009055506001016200039d565b5090565b6000620003d2620003cc8462000599565b62000570565b905082815260208101848484011115620003eb57600080fd5b620003f88482856200067b565b509392505050565b6000815190506200041181620007e4565b92915050565b600082601f8301126200042957600080fd5b81516200043b848260208601620003bb565b91505092915050565b6000815190506200045581620007fe565b92915050565b600080600080608085870312156200047257600080fd5b600085015167ffffffffffffffff8111156200048d57600080fd5b6200049b8782880162000417565b945050602085015167ffffffffffffffff811115620004b957600080fd5b620004c78782880162000417565b9350506040620004da8782880162000400565b9250506060620004ed8782880162000444565b91505092959194509250565b600062000508601f83620005cf565b91506200051582620007bb565b602082019050919050565b6200052b8162000671565b82525050565b600060208201905081810360008301526200054c81620004f9565b9050919050565b60006020820190506200056a600083018462000520565b92915050565b60006200057c6200058f565b90506200058a8282620006e7565b919050565b6000604051905090565b600067ffffffffffffffff821115620005b757620005b66200077b565b5b620005c282620007aa565b9050602081019050919050565b600082825260208201905092915050565b6000620005ed8262000671565b9150620005fa8362000671565b9250827fffffffffffffffffffffffffffffffffffffffffffffffffffffffffffffffff038211156200063257620006316200071d565b5b828201905092915050565b60006200064a8262000651565b9050919050565b600073ffffffffffffffffffffffffffffffffffffffff82169050919050565b6000819050919050565b60005b838110156200069b5780820151818401526020810190506200067e565b83811115620006ab576000848401525b50505050565b60006002820490506001821680620006ca57607f821691505b60208210811415620006e157620006e06200074c565b5b50919050565b620006f282620007aa565b810181811067ffffffffffffffff821117156200071457620007136200077b565b5b80604052505050565b7f4e487b7100000000000000000000000000000000000000000000000000000000600052601160045260246000fd5b7f4e487b7100000000000000000000000000000000000000000000000000000000600052602260045260246000fd5b7f4e487b7100000000000000000000000000000000000000000000000000000000600052604160045260246000fd5b6000601f19601f8301169050919050565b7f45524332303a206d696e7420746f20746865207a65726f206164647265737300600082015250565b620007ef816200063d565b8114620007fb57600080fd5b50565b620008098162000671565b81146200081557600080fd5b50565b612f4a80620008286000396000f3fe608060405234801561001057600080fd5b50600436106101425760003560e01c80637a766460116100b8578063a9059cbb1161007c578063a9059cbb14610367578063ae37bab914610397578063c80738ab146103b5578063dd62ed3e146103d3578063f2fde38b14610403578063f62b46c91461041f57610142565b80637a766460146102af5780638da5cb5b146102df57806395d89b41146102fd578063a457c2d71461031b578063a694fc3a1461034b57610142565b8063395093511161010a57806339509351146102015780633ccfd60b14610231578063426233601461023b5780634e71d92d1461026b57806370a0823114610275578063715018a6146102a557610142565b806306fdde0314610147578063095ea7b31461016557806318160ddd1461019557806323b872dd146101b3578063313ce567146101e3575b600080fd5b61014f61043b565b60405161015c91906123ee565b60405180910390f35b61017f600480360381019061017a9190612011565b6104cd565b60405161018c91906123d3565b60405180910390f35b61019d6104eb565b6040516101aa919061262b565b60405180910390f35b6101cd60048036038101906101c89190611fc2565b6104f5565b6040516101da91906123d3565b60405180910390f35b6101eb6105ed565b6040516101f89190612646565b60405180910390f35b61021b60048036038101906102169190612011565b6105f6565b60405161022891906123d3565b60405180910390f35b6102396106a2565b005b61025560048036038101906102509190611f5d565b610704565b604051610262919061262b565b60405180910390f35b610273610750565b005b61028f600480360381019061028a9190611f5d565b6107a3565b60405161029c919061262b565b60405180910390f35b6102ad6107eb565b005b6102c960048036038101906102c49190611f5d565b610873565b6040516102d69190612610565b60405180910390f35b6102e7610912565b6040516102f491906123b8565b60405180910390f35b61030561093c565b60405161031291906123ee565b60405180910390f35b61033560048036038101906103309190612011565b6109ce565b60405161034291906123d3565b60405180910390f35b6103656004803603810190610360919061204d565b610ab9565b005b610381600480360381019061037c9190612011565b610ad0565b60405161038e91906123d3565b60405180910390f35b61039f610aee565b6040516103ac919061262b565b60405180910390f35b6103bd610af4565b6040516103ca919061262b565b60405180910390f35b6103ed60048036038101906103e89190611f86565b610afa565b6040516103fa919061262b565b60405180910390f35b61041d60048036038101906104189190611f5d565b610b81565b005b6104396004803603810190610434919061204d565b610c79565b005b60606003805461044a9061298b565b80601f01602080910402602001604051908101604052809291908181526020018280546104769061298b565b80156104c35780601f10610498576101008083540402835291602001916104c3565b820191906000526020600020905b8154815290600101906020018083116104a657829003601f168201915b5050505050905090565b60006104e16104da610cce565b8484610cd6565b6001905092915050565b6000600254905090565b6000610502848484610ea1565b6000600160008673ffffffffffffffffffffffffffffffffffffffff1673ffffffffffffffffffffffffffffffffffffffff168152602001908152602001600020600061054d610cce565b73ffffffffffffffffffffffffffffffffffffffff1673ffffffffffffffffffffffffffffffffffffffff168152602001908152602001600020549050828110156105cd576040517f08c379a00000000000000000000000000000000000000000000000000000000081526004016105c4906124d0565b60405180910390fd5b6105e1856105d9610cce565b858403610cd6565b60019150509392505050565b60006012905090565b6000610698610603610cce565b848460016000610611610cce565b73ffffffffffffffffffffffffffffffffffffffff1673ffffffffffffffffffffffffffffffffffffffff16815260200190815260200160002060008873ffffffffffffffffffffffffffffffffffffffff1673ffffffffffffffffffffffffffffffffffffffff16815260200190815260200160002054610693919061267d565b610cd6565b6001905092915050565b6106ab33611122565b6106ea576040517f08c379a00000000000000000000000000000000000000000000000000000000081526004016106e190612510565b60405180910390fd5b60006106f533611178565b905061070133826112ab565b50565b6000600660008373ffffffffffffffffffffffffffffffffffffffff1673ffffffffffffffffffffffffffffffffffffffff168152602001908152602001600020600001549050919050565b61075933611122565b610798576040517f08c379a000000000000000000000000000000000000000000000000000000000815260040161078f90612510565b60405180910390fd5b6107a13361140b565b565b60008060008373ffffffffffffffffffffffffffffffffffffffff1673ffffffffffffffffffffffffffffffffffffffff168152602001908152602001600020549050919050565b6107f3610cce565b73ffffffffffffffffffffffffffffffffffffffff16610811610912565b73ffffffffffffffffffffffffffffffffffffffff1614610867576040517f08c379a000000000000000000000000000000000000000000000000000000000815260040161085e906124f0565b60405180910390fd5b61087160006114ad565b565b61087b611ef6565b600660008373ffffffffffffffffffffffffffffffffffffffff1673ffffffffffffffffffffffffffffffffffffffff1681526020019081526020016000206040518060e00160405290816000820154815260200160018201548152602001600282015481526020016003820154815260200160048201548152602001600582015481526020016006820154815250509050919050565b6000600560009054906101000a900473ffffffffffffffffffffffffffffffffffffffff16905090565b60606004805461094b9061298b565b80601f01602080910402602001604051908101604052809291908181526020018280546109779061298b565b80156109c45780601f10610999576101008083540402835291602001916109c4565b820191906000526020600020905b8154815290600101906020018083116109a757829003601f168201915b5050505050905090565b600080600160006109dd610cce565b73ffffffffffffffffffffffffffffffffffffffff1673ffffffffffffffffffffffffffffffffffffffff16815260200190815260200160002060008573ffffffffffffffffffffffffffffffffffffffff1673ffffffffffffffffffffffffffffffffffffffff16815260200190815260200160002054905082811015610a9a576040517f08c379a0000000000000000000000000000000000000000000000000000000008152600401610a91906125d0565b60405180910390fd5b610aae610aa5610cce565b85858403610cd6565b600191505092915050565b610ac33382611573565b610acd338261174a565b50565b6000610ae4610add610cce565b8484610ea1565b6001905092915050565b60095481565b60085481565b6000600160008473ffffffffffffffffffffffffffffffffffffffff1673ffffffffffffffffffffffffffffffffffffffff16815260200190815260200160002060008373ffffffffffffffffffffffffffffffffffffffff1673ffffffffffffffffffffffffffffffffffffffff16815260200190815260200160002054905092915050565b610b89610cce565b73ffffffffffffffffffffffffffffffffffffffff16610ba7610912565b73ffffffffffffffffffffffffffffffffffffffff1614610bfd576040517f08c379a0000000000000000000000000000000000000000000000000000000008152600401610bf4906124f0565b60405180910390fd5b600073ffffffffffffffffffffffffffffffffffffffff168173ffffffffffffffffffffffffffffffffffffffff161415610c6d576040517f08c379a0000000000000000000000000000000000000000000000000000000008152600401610c6490612470565b60405180910390fd5b610c76816114ad565b50565b610c8233611122565b610cc1576040517f08c379a0000000000000000000000000000000000000000000000000000000008152600401610cb890612510565b60405180910390fd5b610ccb3382611876565b50565b600033905090565b600073ffffffffffffffffffffffffffffffffffffffff168373ffffffffffffffffffffffffffffffffffffffff161415610d46576040517f08c379a0000000000000000000000000000000000000000000000000000000008152600401610d3d906125b0565b60405180910390fd5b600073ffffffffffffffffffffffffffffffffffffffff168273ffffffffffffffffffffffffffffffffffffffff161415610db6576040517f08c379a0000000000000000000000000000000000000000000000000000000008152600401610dad90612490565b60405180910390fd5b80600160008573ffffffffffffffffffffffffffffffffffffffff1673ffffffffffffffffffffffffffffffffffffffff16815260200190815260200160002060008473ffffffffffffffffffffffffffffffffffffffff1673ffffffffffffffffffffffffffffffffffffffff168152602001908152602001600020819055508173ffffffffffffffffffffffffffffffffffffffff168373ffffffffffffffffffffffffffffffffffffffff167f8c5be1e5ebec7d5bd14f71427d1e84f3dd0314c0f7b2291e5b200ac8c7c3b92583604051610e94919061262b565b60405180910390a3505050565b600073ffffffffffffffffffffffffffffffffffffffff168373ffffffffffffffffffffffffffffffffffffffff161415610f11576040517f08c379a0000000000000000000000000000000000000000000000000000000008152600401610f0890612590565b60405180910390fd5b600073ffffffffffffffffffffffffffffffffffffffff168273ffffffffffffffffffffffffffffffffffffffff161415610f81576040517f08c379a0000000000000000000000000000000000000000000000000000000008152600401610f7890612430565b60405180910390fd5b610f8c838383611a8d565b60008060008573ffffffffffffffffffffffffffffffffffffffff1673ffffffffffffffffffffffffffffffffffffffff16815260200190815260200160002054905081811015611012576040517f08c379a0000000000000000000000000000000000000000000000000000000008152600401611009906124b0565b60405180910390fd5b8181036000808673ffffffffffffffffffffffffffffffffffffffff1673ffffffffffffffffffffffffffffffffffffffff16815260200190815260200160002081905550816000808573ffffffffffffffffffffffffffffffffffffffff1673ffffffffffffffffffffffffffffffffffffffff16815260200190815260200160002060008282546110a5919061267d565b925050819055508273ffffffffffffffffffffffffffffffffffffffff168473ffffffffffffffffffffffffffffffffffffffff167fddf252ad1be2c89b69c2b068fc378daa952ba7f163c4a11628f55a4df523b3ef84604051611109919061262b565b60405180910390a361111c848484611a92565b50505050565b6000600760008373ffffffffffffffffffffffffffffffffffffffff1673ffffffffffffffffffffffffffffffffffffffff16815260200190815260200160002060009054906101000a900460ff169050919050565b60008061118483610873565b905060095481604001514261119991906128cf565b10156111da576040517f08c379a00000000000000000000000000000000000000000000000000000000081526004016111d190612530565b60405180910390fd5b6000816080015190506111fa818360600151611a9790919063ffffffff16565b82606001818152505060008260800181815250504282602001818152505081600660008673ffffffffffffffffffffffffffffffffffffffff1673ffffffffffffffffffffffffffffffffffffffff168152602001908152602001600020600082015181600001556020820151816001015560408201518160020155606082015181600301556080820151816004015560a0820151816005015560c082015181600601559050508092505050919050565b600073ffffffffffffffffffffffffffffffffffffffff168273ffffffffffffffffffffffffffffffffffffffff16141561131b576040517f08c379a0000000000000000000000000000000000000000000000000000000008152600401611312906125f0565b60405180910390fd5b61132760008383611a8d565b8060026000828254611339919061267d565b92505081905550806000808473ffffffffffffffffffffffffffffffffffffffff1673ffffffffffffffffffffffffffffffffffffffff168152602001908152602001600020600082825461138e919061267d565b925050819055508173ffffffffffffffffffffffffffffffffffffffff16600073ffffffffffffffffffffffffffffffffffffffff167fddf252ad1be2c89b69c2b068fc378daa952ba7f163c4a11628f55a4df523b3ef836040516113f3919061262b565b60405180910390a361140760008383611a92565b5050565b61141481611aad565b61141d81611c3a565b600660008373ffffffffffffffffffffffffffffffffffffffff1673ffffffffffffffffffffffffffffffffffffffff1681526020019081526020016000206005018190555042600660008373ffffffffffffffffffffffffffffffffffffffff1673ffffffffffffffffffffffffffffffffffffffff1681526020019081526020016000206002018190555050565b6000600560009054906101000a900473ffffffffffffffffffffffffffffffffffffffff16905081600560006101000a81548173ffffffffffffffffffffffffffffffffffffffff021916908373ffffffffffffffffffffffffffffffffffffffff1602179055508173ffffffffffffffffffffffffffffffffffffffff168173ffffffffffffffffffffffffffffffffffffffff167f8be0079c531659141344cd1fd0a4f28419497f9722a3daafe3b4186f6b6457e060405160405180910390a35050565b600073ffffffffffffffffffffffffffffffffffffffff168273ffffffffffffffffffffffffffffffffffffffff1614156115e3576040517f08c379a00000000000000000000000000000000000000000000000000000000081526004016115da90612550565b60405180910390fd5b6115ef82600083611a8d565b60008060008473ffffffffffffffffffffffffffffffffffffffff1673ffffffffffffffffffffffffffffffffffffffff16815260200190815260200160002054905081811015611675576040517f08c379a000000000000000000000000000000000000000000000000000000000815260040161166c90612450565b60405180910390fd5b8181036000808573ffffffffffffffffffffffffffffffffffffffff1673ffffffffffffffffffffffffffffffffffffffff1681526020019081526020016000208190555081600260008282546116cc91906128cf565b92505081905550600073ffffffffffffffffffffffffffffffffffffffff168373ffffffffffffffffffffffffffffffffffffffff167fddf252ad1be2c89b69c2b068fc378daa952ba7f163c4a11628f55a4df523b3ef84604051611731919061262b565b60405180910390a361174583600084611a92565b505050565b611752611ef6565b61175b83611122565b6117785761176882611cf8565b905061177383611d3e565b6117de565b61178183611aad565b61178a83610873565b9050600061179784611c3a565b90506117b0826000015182611a9790919063ffffffff16565b8260c0018181516117c1919061267d565b915081815250508282600001818152505042826040018181525050505b4281602001818152505080600660008573ffffffffffffffffffffffffffffffffffffffff1673ffffffffffffffffffffffffffffffffffffffff168152602001908152602001600020600082015181600001556020820151816001015560408201518160020155606082015181600301556080820151816004015560a0820151816005015560c08201518160060155905050505050565b600081116118b9576040517f08c379a00000000000000000000000000000000000000000000000000000000081526004016118b090612410565b60405180910390fd5b6118c28261140b565b600061195b600660008573ffffffffffffffffffffffffffffffffffffffff1673ffffffffffffffffffffffffffffffffffffffff16815260200190815260200160002060050154600660008673ffffffffffffffffffffffffffffffffffffffff1673ffffffffffffffffffffffffffffffffffffffff16815260200190815260200160002060000154611a9790919063ffffffff16565b9050808211156119a0576040517f08c379a000000000000000000000000000000000000000000000000000000000815260040161199790612570565b60405180910390fd5b81600660008573ffffffffffffffffffffffffffffffffffffffff1673ffffffffffffffffffffffffffffffffffffffff168152602001908152602001600020600401819055506000600660008573ffffffffffffffffffffffffffffffffffffffff1673ffffffffffffffffffffffffffffffffffffffff16815260200190815260200160002060050181905550611a428282611da790919063ffffffff16565b600660008573ffffffffffffffffffffffffffffffffffffffff1673ffffffffffffffffffffffffffffffffffffffff16815260200190815260200160002060000181905550505050565b505050565b505050565b60008183611aa5919061267d565b905092915050565b600954600660008373ffffffffffffffffffffffffffffffffffffffff1673ffffffffffffffffffffffffffffffffffffffff1681526020019081526020016000206001015442611afe91906128cf565b10158015611b4e57506000600660008373ffffffffffffffffffffffffffffffffffffffff1673ffffffffffffffffffffffffffffffffffffffff16815260200190815260200160002060060154115b15611c3757600660008273ffffffffffffffffffffffffffffffffffffffff1673ffffffffffffffffffffffffffffffffffffffff16815260200190815260200160002060060154600660008373ffffffffffffffffffffffffffffffffffffffff1673ffffffffffffffffffffffffffffffffffffffff1681526020019081526020016000206000016000828254611be7919061267d565b925050819055506000600660008373ffffffffffffffffffffffffffffffffffffffff1673ffffffffffffffffffffffffffffffffffffffff168152602001908152602001600020600601819055505b50565b600080600660008473ffffffffffffffffffffffffffffffffffffffff1673ffffffffffffffffffffffffffffffffffffffff1681526020019081526020016000206000015490506000611c8d84611dbd565b90506000611c9a83611e2f565b90506000611cea600854611cdc6064611cce87611cc0888b611eca90919063ffffffff16565b611eca90919063ffffffff16565b611ee090919063ffffffff16565b611ee090919063ffffffff16565b905080945050505050919050565b611d00611ef6565b6040518060e0016040528083815260200142815260200142815260200160008152602001600081526020016000815260200160008152509050919050565b611d4781611122565b611da4576001600760008373ffffffffffffffffffffffffffffffffffffffff1673ffffffffffffffffffffffffffffffffffffffff16815260200190815260200160002060006101000a81548160ff0219169083151502179055505b50565b60008183611db591906128cf565b905092915050565b6000611e28610e10611e1a600660008673ffffffffffffffffffffffffffffffffffffffff1673ffffffffffffffffffffffffffffffffffffffff1681526020019081526020016000206001015442611da790919063ffffffff16565b611ee090919063ffffffff16565b9050919050565b6000611e396105ed565b600a611e459190612757565b6064611e519190612875565b8211611e6057600f9050611ec5565b611e686105ed565b600a611e749190612757565b6103e8611e819190612875565b8211611e905760109050611ec5565b611e986105ed565b600a611ea49190612757565b6105dc611eb19190612875565b8211611ec05760119050611ec5565b601290505b919050565b60008183611ed89190612875565b905092915050565b60008183611eee91906126d3565b905092915050565b6040518060e00160405280600081526020016000815260200160008152602001600081526020016000815260200160008152602001600081525090565b600081359050611f4281612ee6565b92915050565b600081359050611f5781612efd565b92915050565b600060208284031215611f6f57600080fd5b6000611f7d84828501611f33565b91505092915050565b60008060408385031215611f9957600080fd5b6000611fa785828601611f33565b9250506020611fb885828601611f33565b9150509250929050565b600080600060608486031215611fd757600080fd5b6000611fe586828701611f33565b9350506020611ff686828701611f33565b925050604061200786828701611f48565b9150509250925092565b6000806040838503121561202457600080fd5b600061203285828601611f33565b925050602061204385828601611f48565b9150509250929050565b60006020828403121561205f57600080fd5b600061206d84828501611f48565b91505092915050565b61207f81612903565b82525050565b61208e81612915565b82525050565b600061209f82612661565b6120a9818561266c565b93506120b9818560208601612958565b6120c281612a4a565b840191505092915050565b60006120da60298361266c565b91506120e582612a68565b604082019050919050565b60006120fd60238361266c565b915061210882612ab7565b604082019050919050565b600061212060228361266c565b915061212b82612b06565b604082019050919050565b600061214360268361266c565b915061214e82612b55565b604082019050919050565b600061216660228361266c565b915061217182612ba4565b604082019050919050565b600061218960268361266c565b915061219482612bf3565b604082019050919050565b60006121ac60288361266c565b91506121b782612c42565b604082019050919050565b60006121cf60208361266c565b91506121da82612c91565b602082019050919050565b60006121f260278361266c565b91506121fd82612cba565b604082019050919050565b6000612215602a8361266c565b915061222082612d09565b604082019050919050565b600061223860218361266c565b915061224382612d58565b604082019050919050565b600061225b601d8361266c565b915061226682612da7565b602082019050919050565b600061227e60258361266c565b915061228982612dd0565b604082019050919050565b60006122a160248361266c565b91506122ac82612e1f565b604082019050919050565b60006122c460258361266c565b91506122cf82612e6e565b604082019050919050565b60006122e7601f8361266c565b91506122f282612ebd565b602082019050919050565b60e082016000820151612313600085018261238b565b506020820151612326602085018261238b565b506040820151612339604085018261238b565b50606082015161234c606085018261238b565b50608082015161235f608085018261238b565b5060a082015161237260a085018261238b565b5060c082015161238560c085018261238b565b50505050565b61239481612941565b82525050565b6123a381612941565b82525050565b6123b28161294b565b82525050565b60006020820190506123cd6000830184612076565b92915050565b60006020820190506123e86000830184612085565b92915050565b600060208201905081810360008301526124088184612094565b905092915050565b60006020820190508181036000830152612429816120cd565b9050919050565b60006020820190508181036000830152612449816120f0565b9050919050565b6000602082019050818103600083015261246981612113565b9050919050565b6000602082019050818103600083015261248981612136565b9050919050565b600060208201905081810360008301526124a981612159565b9050919050565b600060208201905081810360008301526124c98161217c565b9050919050565b600060208201905081810360008301526124e98161219f565b9050919050565b60006020820190508181036000830152612509816121c2565b9050919050565b60006020820190508181036000830152612529816121e5565b9050919050565b6000602082019050818103600083015261254981612208565b9050919050565b600060208201905081810360008301526125698161222b565b9050919050565b600060208201905081810360008301526125898161224e565b9050919050565b600060208201905081810360008301526125a981612271565b9050919050565b600060208201905081810360008301526125c981612294565b9050919050565b600060208201905081810360008301526125e9816122b7565b9050919050565b60006020820190508181036000830152612609816122da565b9050919050565b600060e08201905061262560008301846122fd565b92915050565b6000602082019050612640600083018461239a565b92915050565b600060208201905061265b60008301846123a9565b92915050565b600081519050919050565b600082825260208201905092915050565b600061268882612941565b915061269383612941565b9250827fffffffffffffffffffffffffffffffffffffffffffffffffffffffffffffffff038211156126c8576126c76129bd565b5b828201905092915050565b60006126de82612941565b91506126e983612941565b9250826126f9576126f86129ec565b5b828204905092915050565b6000808291508390505b600185111561274e5780860481111561272a576127296129bd565b5b60018516156127395780820291505b808102905061274785612a5b565b945061270e565b94509492505050565b600061276282612941565b915061276d8361294b565b925061279a7fffffffffffffffffffffffffffffffffffffffffffffffffffffffffffffffff84846127a2565b905092915050565b6000826127b2576001905061286e565b816127c0576000905061286e565b81600181146127d657600281146127e05761280f565b600191505061286e565b60ff8411156127f2576127f16129bd565b5b8360020a915084821115612809576128086129bd565b5b5061286e565b5060208310610133831016604e8410600b84101617156128445782820a90508381111561283f5761283e6129bd565b5b61286e565b6128518484846001612704565b92509050818404811115612868576128676129bd565b5b81810290505b9392505050565b600061288082612941565b915061288b83612941565b9250817fffffffffffffffffffffffffffffffffffffffffffffffffffffffffffffffff04831182151516156128c4576128c36129bd565b5b828202905092915050565b60006128da82612941565b91506128e583612941565b9250828210156128f8576128f76129bd565b5b828203905092915050565b600061290e82612921565b9050919050565b60008115159050919050565b600073ffffffffffffffffffffffffffffffffffffffff82169050919050565b6000819050919050565b600060ff82169050919050565b60005b8381101561297657808201518184015260208101905061295b565b83811115612985576000848401525b50505050565b600060028204905060018216806129a357607f821691505b602082108114156129b7576129b6612a1b565b5b50919050565b7f4e487b7100000000000000000000000000000000000000000000000000000000600052601160045260246000fd5b7f4e487b7100000000000000000000000000000000000000000000000000000000600052601260045260246000fd5b7f4e487b7100000000000000000000000000000000000000000000000000000000600052602260045260246000fd5b6000601f19601f8301169050919050565b60008160011c9050919050565b7f416d6f756e7420746f207769746864726177206e65656420746f206265206c6560008201527f7373207468616e20300000000000000000000000000000000000000000000000602082015250565b7f45524332303a207472616e7366657220746f20746865207a65726f206164647260008201527f6573730000000000000000000000000000000000000000000000000000000000602082015250565b7f45524332303a206275726e20616d6f756e7420657863656564732062616c616e60008201527f6365000000000000000000000000000000000000000000000000000000000000602082015250565b7f4f776e61626c653a206e6577206f776e657220697320746865207a65726f206160008201527f6464726573730000000000000000000000000000000000000000000000000000602082015250565b7f45524332303a20617070726f766520746f20746865207a65726f20616464726560008201527f7373000000000000000000000000000000000000000000000000000000000000602082015250565b7f45524332303a207472616e7366657220616d6f756e742065786365656473206260008201527f616c616e63650000000000000000000000000000000000000000000000000000602082015250565b7f45524332303a207472616e7366657220616d6f756e742065786365656473206160008201527f6c6c6f77616e6365000000000000000000000000000000000000000000000000602082015250565b7f4f776e61626c653a2063616c6c6572206973206e6f7420746865206f776e6572600082015250565b7f596f75206e65656420746f2062652061205374616b65686f6c64657220746f2060008201527f646f207468617400000000000000000000000000000000000000000000000000602082015250565b7f4d696e696d756d20776974686472617720706572696f6420616674657220636c60008201527f61696d2031206461792e00000000000000000000000000000000000000000000602082015250565b7f45524332303a206275726e2066726f6d20746865207a65726f2061646472657360008201527f7300000000000000000000000000000000000000000000000000000000000000602082015250565b7f596f752063616e74207769746864726177207468697320616d6f756e74000000600082015250565b7f45524332303a207472616e736665722066726f6d20746865207a65726f20616460008201527f6472657373000000000000000000000000000000000000000000000000000000602082015250565b7f45524332303a20617070726f76652066726f6d20746865207a65726f2061646460008201527f7265737300000000000000000000000000000000000000000000000000000000602082015250565b7f45524332303a2064656372656173656420616c6c6f77616e63652062656c6f7760008201527f207a65726f000000000000000000000000000000000000000000000000000000602082015250565b7f45524332303a206d696e7420746f20746865207a65726f206164647265737300600082015250565b612eef81612903565b8114612efa57600080fd5b50565b612f0681612941565b8114612f1157600080fd5b5056fea264697066735822122021303a81c5b6c9d03d49a00cd47bfb897c6c7e398c6eb38523c89bcc5df86ec664736f6c63430008040033",
  "linkReferences": {},
  "deployedLinkReferences": {}
}