{
  "contractName": "StakingToken",
  "abi": [
    {
      "inputs": [
        {
          "internalType": "address",
          "name": "_owner",
          "type": "address"
        },
        {
          "internalType": "uint256",
          "name": "initialSupply",
          "type": "uint256"
        }
      ],
      "stateMutability": "nonpayable",
      "type": "constructor"
    },
    {
      "anonymous": false,
      "inputs": [
        {
          "indexed": true,
          "internalType": "address",
          "name": "owner",
          "type": "address"
        },
        {
          "indexed": true,
          "internalType": "address",
          "name": "spender",
          "type": "address"
        },
        {
          "indexed": false,
          "internalType": "uint256",
          "name": "value",
          "type": "uint256"
        }
      ],
      "name": "Approval",
      "type": "event"
    },
    {
      "anonymous": false,
      "inputs": [
        {
          "indexed": true,
          "internalType": "address",
          "name": "previousOwner",
          "type": "address"
        },
        {
          "indexed": true,
          "internalType": "address",
          "name": "newOwner",
          "type": "address"
        }
      ],
      "name": "OwnershipTransferred",
      "type": "event"
    },
    {
      "anonymous": false,
      "inputs": [
        {
          "indexed": true,
          "internalType": "address",
          "name": "from",
          "type": "address"
        },
        {
          "indexed": true,
          "internalType": "address",
          "name": "to",
          "type": "address"
        },
        {
          "indexed": false,
          "internalType": "uint256",
          "name": "value",
          "type": "uint256"
        }
      ],
      "name": "Transfer",
      "type": "event"
    },
    {
      "inputs": [],
      "name": "RATE1",
      "outputs": [
        {
          "internalType": "uint256",
          "name": "",
          "type": "uint256"
        }
      ],
      "stateMutability": "view",
      "type": "function"
    },
    {
      "inputs": [],
      "name": "RATE2",
      "outputs": [
        {
          "internalType": "uint256",
          "name": "",
          "type": "uint256"
        }
      ],
      "stateMutability": "view",
      "type": "function"
    },
    {
      "inputs": [],
      "name": "RATE3",
      "outputs": [
        {
          "internalType": "uint256",
          "name": "",
          "type": "uint256"
        }
      ],
      "stateMutability": "view",
      "type": "function"
    },
    {
      "inputs": [
        {
          "internalType": "address",
          "name": "owner",
          "type": "address"
        },
        {
          "internalType": "address",
          "name": "spender",
          "type": "address"
        }
      ],
      "name": "allowance",
      "outputs": [
        {
          "internalType": "uint256",
          "name": "",
          "type": "uint256"
        }
      ],
      "stateMutability": "view",
      "type": "function"
    },
    {
      "inputs": [
        {
          "internalType": "address",
          "name": "spender",
          "type": "address"
        },
        {
          "internalType": "uint256",
          "name": "amount",
          "type": "uint256"
        }
      ],
      "name": "approve",
      "outputs": [
        {
          "internalType": "bool",
          "name": "",
          "type": "bool"
        }
      ],
      "stateMutability": "nonpayable",
      "type": "function"
    },
    {
      "inputs": [
        {
          "internalType": "address",
          "name": "account",
          "type": "address"
        }
      ],
      "name": "balanceOf",
      "outputs": [
        {
          "internalType": "uint256",
          "name": "",
          "type": "uint256"
        }
      ],
      "stateMutability": "view",
      "type": "function"
    },
    {
      "inputs": [],
      "name": "decimals",
      "outputs": [
        {
          "internalType": "uint8",
          "name": "",
          "type": "uint8"
        }
      ],
      "stateMutability": "view",
      "type": "function"
    },
    {
      "inputs": [
        {
          "internalType": "address",
          "name": "spender",
          "type": "address"
        },
        {
          "internalType": "uint256",
          "name": "subtractedValue",
          "type": "uint256"
        }
      ],
      "name": "decreaseAllowance",
      "outputs": [
        {
          "internalType": "bool",
          "name": "",
          "type": "bool"
        }
      ],
      "stateMutability": "nonpayable",
      "type": "function"
    },
    {
      "inputs": [
        {
          "internalType": "address",
          "name": "spender",
          "type": "address"
        },
        {
          "internalType": "uint256",
          "name": "addedValue",
          "type": "uint256"
        }
      ],
      "name": "increaseAllowance",
      "outputs": [
        {
          "internalType": "bool",
          "name": "",
          "type": "bool"
        }
      ],
      "stateMutability": "nonpayable",
      "type": "function"
    },
    {
      "inputs": [],
      "name": "name",
      "outputs": [
        {
          "internalType": "string",
          "name": "",
          "type": "string"
        }
      ],
      "stateMutability": "view",
      "type": "function"
    },
    {
      "inputs": [],
      "name": "owner",
      "outputs": [
        {
          "internalType": "address",
          "name": "",
          "type": "address"
        }
      ],
      "stateMutability": "view",
      "type": "function"
    },
    {
      "inputs": [],
      "name": "renounceOwnership",
      "outputs": [],
      "stateMutability": "nonpayable",
      "type": "function"
    },
    {
      "inputs": [],
      "name": "symbol",
      "outputs": [
        {
          "internalType": "string",
          "name": "",
          "type": "string"
        }
      ],
      "stateMutability": "view",
      "type": "function"
    },
    {
      "inputs": [],
      "name": "totalSupply",
      "outputs": [
        {
          "internalType": "uint256",
          "name": "",
          "type": "uint256"
        }
      ],
      "stateMutability": "view",
      "type": "function"
    },
    {
      "inputs": [
        {
          "internalType": "address",
          "name": "recipient",
          "type": "address"
        },
        {
          "internalType": "uint256",
          "name": "amount",
          "type": "uint256"
        }
      ],
      "name": "transfer",
      "outputs": [
        {
          "internalType": "bool",
          "name": "",
          "type": "bool"
        }
      ],
      "stateMutability": "nonpayable",
      "type": "function"
    },
    {
      "inputs": [
        {
          "internalType": "address",
          "name": "sender",
          "type": "address"
        },
        {
          "internalType": "address",
          "name": "recipient",
          "type": "address"
        },
        {
          "internalType": "uint256",
          "name": "amount",
          "type": "uint256"
        }
      ],
      "name": "transferFrom",
      "outputs": [
        {
          "internalType": "bool",
          "name": "",
          "type": "bool"
        }
      ],
      "stateMutability": "nonpayable",
      "type": "function"
    },
    {
      "inputs": [
        {
          "internalType": "address",
          "name": "newOwner",
          "type": "address"
        }
      ],
      "name": "transferOwnership",
      "outputs": [],
      "stateMutability": "nonpayable",
      "type": "function"
    },
    {
      "inputs": [
        {
          "internalType": "uint256",
          "name": "amount",
          "type": "uint256"
        }
      ],
      "name": "stake",
      "outputs": [],
      "stateMutability": "nonpayable",
      "type": "function"
    },
    {
      "inputs": [
        {
          "internalType": "address",
          "name": "_stakeHoleder",
          "type": "address"
        }
      ],
      "name": "stakeOf",
      "outputs": [
        {
          "internalType": "uint256",
          "name": "",
          "type": "uint256"
        }
      ],
      "stateMutability": "view",
      "type": "function"
    },
    {
      "inputs": [
        {
          "internalType": "address",
          "name": "_stakeHoleder",
          "type": "address"
        }
      ],
      "name": "countOfStakes",
      "outputs": [
        {
          "internalType": "uint256",
          "name": "",
          "type": "uint256"
        }
      ],
      "stateMutability": "view",
      "type": "function"
    },
    {
      "inputs": [
        {
          "internalType": "address",
          "name": "_stakeHoleder",
          "type": "address"
        },
        {
          "internalType": "uint256",
          "name": "stakeIndex",
          "type": "uint256"
        }
      ],
      "name": "getStake",
      "outputs": [
        {
          "components": [
            {
              "internalType": "uint256",
              "name": "rate",
              "type": "uint256"
            },
            {
              "internalType": "uint256",
              "name": "amount",
              "type": "uint256"
            },
            {
              "internalType": "uint256",
              "name": "sinceStaking",
              "type": "uint256"
            },
            {
              "internalType": "uint256",
              "name": "sinceClaimed",
              "type": "uint256"
            },
            {
              "internalType": "uint256",
              "name": "withdrawnAmount",
              "type": "uint256"
            },
            {
              "internalType": "uint256",
              "name": "toWithdraw",
              "type": "uint256"
            },
            {
              "internalType": "bool",
              "name": "rewarded",
              "type": "bool"
            }
          ],
          "internalType": "struct StakingToken.Stake",
          "name": "",
          "type": "tuple"
        }
      ],
      "stateMutability": "view",
      "type": "function"
    },
    {
      "inputs": [
        {
          "internalType": "address",
          "name": "_stakeHoleder",
          "type": "address"
        },
        {
          "internalType": "uint256",
          "name": "stakeIndex",
          "type": "uint256"
        }
      ],
      "name": "calculatePeriod",
      "outputs": [
        {
          "internalType": "uint256",
          "name": "",
          "type": "uint256"
        }
      ],
      "stateMutability": "view",
      "type": "function"
    },
    {
      "inputs": [
        {
          "internalType": "address",
          "name": "_stakeHoleder",
          "type": "address"
        },
        {
          "internalType": "uint256",
          "name": "stakeIndex",
          "type": "uint256"
        }
      ],
      "name": "calculateReward",
      "outputs": [
        {
          "internalType": "uint256",
          "name": "",
          "type": "uint256"
        }
      ],
      "stateMutability": "view",
      "type": "function"
    },
    {
      "inputs": [],
      "name": "claim",
      "outputs": [
        {
          "internalType": "uint256",
          "name": "",
          "type": "uint256"
        }
      ],
      "stateMutability": "view",
      "type": "function"
    },
    {
      "inputs": [
        {
          "internalType": "uint256",
          "name": "amount",
          "type": "uint256"
        }
      ],
      "name": "claimAndWithdraw",
      "outputs": [],
      "stateMutability": "nonpayable",
      "type": "function"
    },
    {
      "inputs": [],
      "name": "withdraw",
      "outputs": [],
      "stateMutability": "nonpayable",
      "type": "function"
    },
    {
      "inputs": [
        {
          "internalType": "address",
          "name": "_stakeHoleder",
          "type": "address"
        },
        {
          "internalType": "uint256",
          "name": "stakeIndex",
          "type": "uint256"
        },
        {
          "internalType": "uint256",
          "name": "_hours",
          "type": "uint256"
        }
      ],
      "name": "_setHoursForStake",
      "outputs": [],
      "stateMutability": "nonpayable",
      "type": "function"
    },
    {
      "inputs": [
        {
          "internalType": "address",
          "name": "_stakeHoleder",
          "type": "address"
        },
        {
          "internalType": "uint256",
          "name": "stakeIndex",
          "type": "uint256"
        },
        {
          "internalType": "uint256",
          "name": "_hours",
          "type": "uint256"
        }
      ],
      "name": "_setHoursForClaimed",
      "outputs": [],
      "stateMutability": "nonpayable",
      "type": "function"
    }
  ],
  "bytecode": "0x6080604052610e10600a556012600b60006101000a81548160ff021916908360ff160217905550600b60009054906101000a900460ff16600a6200004491906200065d565b6105dc620000539190620006ae565b600c55600b60009054906101000a900460ff16600a6200007491906200065d565b6103e8620000839190620006ae565b600d55600b60009054906101000a900460ff16600a620000a491906200065d565b6064620000b29190620006ae565b600e55348015620000c257600080fd5b5060405162003c6d38038062003c6d8339818101604052810190620000e89190620007aa565b6040518060400160405280600b81526020017f4d79436f6f6c546f6b656e0000000000000000000000000000000000000000008152506040518060400160405280600381526020017f4d4354000000000000000000000000000000000000000000000000000000000081525081600390805190602001906200016c92919062000413565b5080600490805190602001906200018592919062000413565b505050620001a86200019c620001c260201b60201c565b620001ca60201b60201c565b620001ba82826200029060201b60201c565b505062000964565b600033905090565b6000600560009054906101000a900473ffffffffffffffffffffffffffffffffffffffff16905081600560006101000a81548173ffffffffffffffffffffffffffffffffffffffff021916908373ffffffffffffffffffffffffffffffffffffffff1602179055508173ffffffffffffffffffffffffffffffffffffffff168173ffffffffffffffffffffffffffffffffffffffff167f8be0079c531659141344cd1fd0a4f28419497f9722a3daafe3b4186f6b6457e060405160405180910390a35050565b600073ffffffffffffffffffffffffffffffffffffffff168273ffffffffffffffffffffffffffffffffffffffff16141562000303576040517f08c379a0000000000000000000000000000000000000000000000000000000008152600401620002fa9062000852565b60405180910390fd5b62000317600083836200040960201b60201c565b80600260008282546200032b919062000874565b92505081905550806000808473ffffffffffffffffffffffffffffffffffffffff1673ffffffffffffffffffffffffffffffffffffffff168152602001908152602001600020600082825462000382919062000874565b925050819055508173ffffffffffffffffffffffffffffffffffffffff16600073ffffffffffffffffffffffffffffffffffffffff167fddf252ad1be2c89b69c2b068fc378daa952ba7f163c4a11628f55a4df523b3ef83604051620003e99190620008e2565b60405180910390a362000405600083836200040e60201b60201c565b5050565b505050565b505050565b82805462000421906200092e565b90600052602060002090601f01602090048101928262000445576000855562000491565b82601f106200046057805160ff191683800117855562000491565b8280016001018555821562000491579182015b828111156200049057825182559160200191906001019062000473565b5b509050620004a09190620004a4565b5090565b5b80821115620004bf576000816000905550600101620004a5565b5090565b7f4e487b7100000000000000000000000000000000000000000000000000000000600052601160045260246000fd5b60008160011c9050919050565b6000808291508390505b60018511156200055157808604811115620005295762000528620004c3565b5b6001851615620005395780820291505b80810290506200054985620004f2565b945062000509565b94509492505050565b6000826200056c57600190506200063f565b816200057c57600090506200063f565b8160018114620005955760028114620005a057620005d6565b60019150506200063f565b60ff841115620005b557620005b4620004c3565b5b8360020a915084821115620005cf57620005ce620004c3565b5b506200063f565b5060208310610133831016604e8410600b8410161715620006105782820a9050838111156200060a5762000609620004c3565b5b6200063f565b6200061f8484846001620004ff565b92509050818404811115620006395762000638620004c3565b5b81810290505b9392505050565b6000819050919050565b600060ff82169050919050565b60006200066a8262000646565b9150620006778362000650565b9250620006a67fffffffffffffffffffffffffffffffffffffffffffffffffffffffffffffffff84846200055a565b905092915050565b6000620006bb8262000646565b9150620006c88362000646565b9250817fffffffffffffffffffffffffffffffffffffffffffffffffffffffffffffffff0483118215151615620007045762000703620004c3565b5b828202905092915050565b600080fd5b600073ffffffffffffffffffffffffffffffffffffffff82169050919050565b6000620007418262000714565b9050919050565b620007538162000734565b81146200075f57600080fd5b50565b600081519050620007738162000748565b92915050565b620007848162000646565b81146200079057600080fd5b50565b600081519050620007a48162000779565b92915050565b60008060408385031215620007c457620007c36200070f565b5b6000620007d48582860162000762565b9250506020620007e78582860162000793565b9150509250929050565b600082825260208201905092915050565b7f45524332303a206d696e7420746f20746865207a65726f206164647265737300600082015250565b60006200083a601f83620007f1565b9150620008478262000802565b602082019050919050565b600060208201905081810360008301526200086d816200082b565b9050919050565b6000620008818262000646565b91506200088e8362000646565b9250827fffffffffffffffffffffffffffffffffffffffffffffffffffffffffffffffff03821115620008c657620008c5620004c3565b5b828201905092915050565b620008dc8162000646565b82525050565b6000602082019050620008f96000830184620008d1565b92915050565b7f4e487b7100000000000000000000000000000000000000000000000000000000600052602260045260246000fd5b600060028204905060018216806200094757607f821691505b602082108114156200095e576200095d620008ff565b5b50919050565b6132f980620009746000396000f3fe608060405234801561001057600080fd5b50600436106101c45760003560e01c8063715018a6116100f9578063ccf4b70a11610097578063f2b4020911610071578063f2b4020914610545578063f2fde38b14610563578063f525f2021461057f578063f62b46c91461059b576101c4565b8063ccf4b70a146104c7578063cfd47663146104e5578063dd62ed3e14610515576101c4565b806395d89b41116100d357806395d89b411461042d578063a457c2d71461044b578063a694fc3a1461047b578063a9059cbb14610497576101c4565b8063715018a6146103e757806373357018146103f15780638da5cb5b1461040f576101c4565b8063313ce56711610166578063426233601161014057806342623360146103395780634e71d92d1461036957806351f91fca1461038757806370a08231146103b7576101c4565b8063313ce567146102e157806339509351146102ff5780633ccfd60b1461032f576101c4565b806318160ddd116101a257806318160ddd146102475780631852e8d914610265578063201627a01461029557806323b872dd146102b1576101c4565b806306fdde03146101c9578063095ea7b3146101e757806316f1b5e214610217575b600080fd5b6101d16105b7565b6040516101de91906123e0565b60405180910390f35b61020160048036038101906101fc919061249b565b610649565b60405161020e91906124f6565b60405180910390f35b610231600480360381019061022c9190612511565b610667565b60405161023e919061254d565b60405180910390f35b61024f6106b3565b60405161025c919061254d565b60405180910390f35b61027f600480360381019061027a919061249b565b6106bd565b60405161028c919061254d565b60405180910390f35b6102af60048036038101906102aa9190612568565b61073e565b005b6102cb60048036038101906102c691906125bb565b61084c565b6040516102d891906124f6565b60405180910390f35b6102e9610944565b6040516102f6919061262a565b60405180910390f35b6103196004803603810190610314919061249b565b61094d565b60405161032691906124f6565b60405180910390f35b6103376109f9565b005b610353600480360381019061034e9190612511565b610d37565b604051610360919061254d565b60405180910390f35b610371610d80565b60405161037e919061254d565b60405180910390f35b6103a1600480360381019061039c919061249b565b610dd8565b6040516103ae919061254d565b60405180910390f35b6103d160048036038101906103cc9190612511565b610e21565b6040516103de919061254d565b60405180910390f35b6103ef610e69565b005b6103f9610ef1565b604051610406919061254d565b60405180910390f35b610417610ef7565b6040516104249190612654565b60405180910390f35b610435610f21565b60405161044291906123e0565b60405180910390f35b6104656004803603810190610460919061249b565b610fb3565b60405161047291906124f6565b60405180910390f35b6104956004803603810190610490919061266f565b61109e565b005b6104b160048036038101906104ac919061249b565b6110b5565b6040516104be91906124f6565b60405180910390f35b6104cf6110d3565b6040516104dc919061254d565b60405180910390f35b6104ff60048036038101906104fa919061249b565b6110d9565b60405161050c9190612748565b60405180910390f35b61052f600480360381019061052a9190612763565b6111aa565b60405161053c919061254d565b60405180910390f35b61054d611231565b60405161055a919061254d565b60405180910390f35b61057d60048036038101906105789190612511565b611237565b005b61059960048036038101906105949190612568565b61132f565b005b6105b560048036038101906105b0919061266f565b61143d565b005b6060600380546105c6906127d2565b80601f01602080910402602001604051908101604052809291908181526020018280546105f2906127d2565b801561063f5780601f106106145761010080835404028352916020019161063f565b820191906000526020600020905b81548152906001019060200180831161062257829003601f168201915b5050505050905090565b600061065d6106566116ac565b84846116b4565b6001905092915050565b6000600760008373ffffffffffffffffffffffffffffffffffffffff1673ffffffffffffffffffffffffffffffffffffffff168152602001908152602001600020805490509050919050565b6000600254905090565b6000806106ca84846110d9565b905060006106d88585610dd8565b905061073482608001516107266402540be4006107188561070a8860000151896020015161187f90919063ffffffff16565b61187f90919063ffffffff16565b61189590919063ffffffff16565b6118ab90919063ffffffff16565b9250505092915050565b6107466116ac565b73ffffffffffffffffffffffffffffffffffffffff16610764610ef7565b73ffffffffffffffffffffffffffffffffffffffff16146107ba576040517f08c379a00000000000000000000000000000000000000000000000000000000081526004016107b190612850565b60405180910390fd5b6107e16107d2610e108361187f90919063ffffffff16565b426118ab90919063ffffffff16565b600760008573ffffffffffffffffffffffffffffffffffffffff1673ffffffffffffffffffffffffffffffffffffffff168152602001908152602001600020838154811061083257610831612870565b5b906000526020600020906007020160030181905550505050565b60006108598484846118c1565b6000600160008673ffffffffffffffffffffffffffffffffffffffff1673ffffffffffffffffffffffffffffffffffffffff16815260200190815260200160002060006108a46116ac565b73ffffffffffffffffffffffffffffffffffffffff1673ffffffffffffffffffffffffffffffffffffffff16815260200190815260200160002054905082811015610924576040517f08c379a000000000000000000000000000000000000000000000000000000000815260040161091b90612911565b60405180910390fd5b610938856109306116ac565b8584036116b4565b60019150509392505050565b60006012905090565b60006109ef61095a6116ac565b8484600160006109686116ac565b73ffffffffffffffffffffffffffffffffffffffff1673ffffffffffffffffffffffffffffffffffffffff16815260200190815260200160002060008873ffffffffffffffffffffffffffffffffffffffff1673ffffffffffffffffffffffffffffffffffffffff168152602001908152602001600020546109ea9190612960565b6116b4565b6001905092915050565b610a0233611b42565b610a41576040517f08c379a0000000000000000000000000000000000000000000000000000000008152600401610a3890612a28565b60405180910390fd5b60008060005b600760003373ffffffffffffffffffffffffffffffffffffffff1673ffffffffffffffffffffffffffffffffffffffff16815260200190815260200160002080549050811015610ce55762015180600760003373ffffffffffffffffffffffffffffffffffffffff1673ffffffffffffffffffffffffffffffffffffffff1681526020019081526020016000208281548110610ae657610ae5612870565b5b90600052602060002090600702016003015442610b039190612a48565b1015610b0e57610cd2565b600760003373ffffffffffffffffffffffffffffffffffffffff1673ffffffffffffffffffffffffffffffffffffffff1681526020019081526020016000208181548110610b5f57610b5e612870565b5b9060005260206000209060070201600501549250610b868383611b9090919063ffffffff16565b91506000600760003373ffffffffffffffffffffffffffffffffffffffff1673ffffffffffffffffffffffffffffffffffffffff1681526020019081526020016000208281548110610bdb57610bda612870565b5b90600052602060002090600702016005018190555082600760003373ffffffffffffffffffffffffffffffffffffffff1673ffffffffffffffffffffffffffffffffffffffff1681526020019081526020016000208281548110610c4257610c41612870565b5b90600052602060002090600702016004016000828254610c629190612960565b925050819055506000600760003373ffffffffffffffffffffffffffffffffffffffff1673ffffffffffffffffffffffffffffffffffffffff1681526020019081526020016000208281548110610cbc57610cbb612870565b5b9060005260206000209060070201600301819055505b8080610cdd90612a7c565b915050610a47565b5060008111610d29576040517f08c379a0000000000000000000000000000000000000000000000000000000008152600401610d2090612b37565b60405180910390fd5b610d333382611ba6565b5050565b6000600860008373ffffffffffffffffffffffffffffffffffffffff1673ffffffffffffffffffffffffffffffffffffffff168152602001908152602001600020549050919050565b6000610d8b33611b42565b610dca576040517f08c379a0000000000000000000000000000000000000000000000000000000008152600401610dc190612a28565b60405180910390fd5b610dd333611d06565b905090565b600080610de584846110d9565b90506000610e14610e10610e068460400151426118ab90919063ffffffff16565b61189590919063ffffffff16565b9050809250505092915050565b60008060008373ffffffffffffffffffffffffffffffffffffffff1673ffffffffffffffffffffffffffffffffffffffff168152602001908152602001600020549050919050565b610e716116ac565b73ffffffffffffffffffffffffffffffffffffffff16610e8f610ef7565b73ffffffffffffffffffffffffffffffffffffffff1614610ee5576040517f08c379a0000000000000000000000000000000000000000000000000000000008152600401610edc90612850565b60405180910390fd5b610eef6000611e46565b565b600d5481565b6000600560009054906101000a900473ffffffffffffffffffffffffffffffffffffffff16905090565b606060048054610f30906127d2565b80601f0160208091040260200160405190810160405280929190818152602001828054610f5c906127d2565b8015610fa95780601f10610f7e57610100808354040283529160200191610fa9565b820191906000526020600020905b815481529060010190602001808311610f8c57829003601f168201915b5050505050905090565b60008060016000610fc26116ac565b73ffffffffffffffffffffffffffffffffffffffff1673ffffffffffffffffffffffffffffffffffffffff16815260200190815260200160002060008573ffffffffffffffffffffffffffffffffffffffff1673ffffffffffffffffffffffffffffffffffffffff1681526020019081526020016000205490508281101561107f576040517f08c379a000000000000000000000000000000000000000000000000000000000815260040161107690612bc9565b60405180910390fd5b61109361108a6116ac565b858584036116b4565b600191505092915050565b6110a83382611f0c565b6110b233826120e3565b50565b60006110c96110c26116ac565b84846118c1565b6001905092915050565b600c5481565b6110e1612308565b600760008473ffffffffffffffffffffffffffffffffffffffff1673ffffffffffffffffffffffffffffffffffffffff168152602001908152602001600020828154811061113257611131612870565b5b90600052602060002090600702016040518060e00160405290816000820154815260200160018201548152602001600282015481526020016003820154815260200160048201548152602001600582015481526020016006820160009054906101000a900460ff161515151581525050905092915050565b6000600160008473ffffffffffffffffffffffffffffffffffffffff1673ffffffffffffffffffffffffffffffffffffffff16815260200190815260200160002060008373ffffffffffffffffffffffffffffffffffffffff1673ffffffffffffffffffffffffffffffffffffffff16815260200190815260200160002054905092915050565b600e5481565b61123f6116ac565b73ffffffffffffffffffffffffffffffffffffffff1661125d610ef7565b73ffffffffffffffffffffffffffffffffffffffff16146112b3576040517f08c379a00000000000000000000000000000000000000000000000000000000081526004016112aa90612850565b60405180910390fd5b600073ffffffffffffffffffffffffffffffffffffffff168173ffffffffffffffffffffffffffffffffffffffff161415611323576040517f08c379a000000000000000000000000000000000000000000000000000000000815260040161131a90612c5b565b60405180910390fd5b61132c81611e46565b50565b6113376116ac565b73ffffffffffffffffffffffffffffffffffffffff16611355610ef7565b73ffffffffffffffffffffffffffffffffffffffff16146113ab576040517f08c379a00000000000000000000000000000000000000000000000000000000081526004016113a290612850565b60405180910390fd5b6113d26113c3610e108361187f90919063ffffffff16565b426118ab90919063ffffffff16565b600760008573ffffffffffffffffffffffffffffffffffffffff1673ffffffffffffffffffffffffffffffffffffffff168152602001908152602001600020838154811061142357611422612870565b5b906000526020600020906007020160020181905550505050565b61144633611b42565b611485576040517f08c379a000000000000000000000000000000000000000000000000000000000815260040161147c90612a28565b60405180910390fd5b600081116114c8576040517f08c379a00000000000000000000000000000000000000000000000000000000081526004016114bf90612ced565b60405180910390fd5b6000806000805b600760003373ffffffffffffffffffffffffffffffffffffffff1673ffffffffffffffffffffffffffffffffffffffff16815260200190815260200160002080549050811015611663578482141561152657611663565b61153033826106bd565b92506115458383611b9090919063ffffffff16565b93508484111561157e5761157461156586866118ab90919063ffffffff16565b856118ab90919063ffffffff16565b9350839150611582565b8391505b83600760003373ffffffffffffffffffffffffffffffffffffffff1673ffffffffffffffffffffffffffffffffffffffff16815260200190815260200160002082815481106115d4576115d3612870565b5b90600052602060002090600702016005018190555042600760003373ffffffffffffffffffffffffffffffffffffffff1673ffffffffffffffffffffffffffffffffffffffff168152602001908152602001600020828154811061163b5761163a612870565b5b906000526020600020906007020160030181905550808061165b90612a7c565b9150506114cf565b508084146116a6576040517f08c379a000000000000000000000000000000000000000000000000000000000815260040161169d90612d7f565b60405180910390fd5b50505050565b600033905090565b600073ffffffffffffffffffffffffffffffffffffffff168373ffffffffffffffffffffffffffffffffffffffff161415611724576040517f08c379a000000000000000000000000000000000000000000000000000000000815260040161171b90612e11565b60405180910390fd5b600073ffffffffffffffffffffffffffffffffffffffff168273ffffffffffffffffffffffffffffffffffffffff161415611794576040517f08c379a000000000000000000000000000000000000000000000000000000000815260040161178b90612ea3565b60405180910390fd5b80600160008573ffffffffffffffffffffffffffffffffffffffff1673ffffffffffffffffffffffffffffffffffffffff16815260200190815260200160002060008473ffffffffffffffffffffffffffffffffffffffff1673ffffffffffffffffffffffffffffffffffffffff168152602001908152602001600020819055508173ffffffffffffffffffffffffffffffffffffffff168373ffffffffffffffffffffffffffffffffffffffff167f8c5be1e5ebec7d5bd14f71427d1e84f3dd0314c0f7b2291e5b200ac8c7c3b92583604051611872919061254d565b60405180910390a3505050565b6000818361188d9190612ec3565b905092915050565b600081836118a39190612f4c565b905092915050565b600081836118b99190612a48565b905092915050565b600073ffffffffffffffffffffffffffffffffffffffff168373ffffffffffffffffffffffffffffffffffffffff161415611931576040517f08c379a000000000000000000000000000000000000000000000000000000000815260040161192890612fef565b60405180910390fd5b600073ffffffffffffffffffffffffffffffffffffffff168273ffffffffffffffffffffffffffffffffffffffff1614156119a1576040517f08c379a000000000000000000000000000000000000000000000000000000000815260040161199890613081565b60405180910390fd5b6119ac8383836122fe565b60008060008573ffffffffffffffffffffffffffffffffffffffff1673ffffffffffffffffffffffffffffffffffffffff16815260200190815260200160002054905081811015611a32576040517f08c379a0000000000000000000000000000000000000000000000000000000008152600401611a2990613113565b60405180910390fd5b8181036000808673ffffffffffffffffffffffffffffffffffffffff1673ffffffffffffffffffffffffffffffffffffffff16815260200190815260200160002081905550816000808573ffffffffffffffffffffffffffffffffffffffff1673ffffffffffffffffffffffffffffffffffffffff1681526020019081526020016000206000828254611ac59190612960565b925050819055508273ffffffffffffffffffffffffffffffffffffffff168473ffffffffffffffffffffffffffffffffffffffff167fddf252ad1be2c89b69c2b068fc378daa952ba7f163c4a11628f55a4df523b3ef84604051611b29919061254d565b60405180910390a3611b3c848484612303565b50505050565b600080600760008473ffffffffffffffffffffffffffffffffffffffff1673ffffffffffffffffffffffffffffffffffffffff16815260200190815260200160002080549050119050919050565b60008183611b9e9190612960565b905092915050565b600073ffffffffffffffffffffffffffffffffffffffff168273ffffffffffffffffffffffffffffffffffffffff161415611c16576040517f08c379a0000000000000000000000000000000000000000000000000000000008152600401611c0d9061317f565b60405180910390fd5b611c22600083836122fe565b8060026000828254611c349190612960565b92505081905550806000808473ffffffffffffffffffffffffffffffffffffffff1673ffffffffffffffffffffffffffffffffffffffff1681526020019081526020016000206000828254611c899190612960565b925050819055508173ffffffffffffffffffffffffffffffffffffffff16600073ffffffffffffffffffffffffffffffffffffffff167fddf252ad1be2c89b69c2b068fc378daa952ba7f163c4a11628f55a4df523b3ef83604051611cee919061254d565b60405180910390a3611d0260008383612303565b5050565b600080600760008473ffffffffffffffffffffffffffffffffffffffff1673ffffffffffffffffffffffffffffffffffffffff168152602001908152602001600020805480602002602001604051908101604052809291908181526020016000905b82821015611df157838290600052602060002090600702016040518060e00160405290816000820154815260200160018201548152602001600282015481526020016003820154815260200160048201548152602001600582015481526020016006820160009054906101000a900460ff16151515158152505081526020019060010190611d68565b5050505090506000808251905060005b81811015611e3a57611e25611e1687836106bd565b84611b9090919063ffffffff16565b92508080611e3290612a7c565b915050611e01565b50819350505050919050565b6000600560009054906101000a900473ffffffffffffffffffffffffffffffffffffffff16905081600560006101000a81548173ffffffffffffffffffffffffffffffffffffffff021916908373ffffffffffffffffffffffffffffffffffffffff1602179055508173ffffffffffffffffffffffffffffffffffffffff168173ffffffffffffffffffffffffffffffffffffffff167f8be0079c531659141344cd1fd0a4f28419497f9722a3daafe3b4186f6b6457e060405160405180910390a35050565b600073ffffffffffffffffffffffffffffffffffffffff168273ffffffffffffffffffffffffffffffffffffffff161415611f7c576040517f08c379a0000000000000000000000000000000000000000000000000000000008152600401611f7390613211565b60405180910390fd5b611f88826000836122fe565b60008060008473ffffffffffffffffffffffffffffffffffffffff1673ffffffffffffffffffffffffffffffffffffffff1681526020019081526020016000205490508181101561200e576040517f08c379a0000000000000000000000000000000000000000000000000000000008152600401612005906132a3565b60405180910390fd5b8181036000808573ffffffffffffffffffffffffffffffffffffffff1673ffffffffffffffffffffffffffffffffffffffff1681526020019081526020016000208190555081600260008282546120659190612a48565b92505081905550600073ffffffffffffffffffffffffffffffffffffffff168373ffffffffffffffffffffffffffffffffffffffff167fddf252ad1be2c89b69c2b068fc378daa952ba7f163c4a11628f55a4df523b3ef846040516120ca919061254d565b60405180910390a36120de83600084612303565b505050565b6120ec82611b42565b612154576006829080600181540180825580915050600190039060005260206000200160009091909190916101000a81548173ffffffffffffffffffffffffffffffffffffffff021916908373ffffffffffffffffffffffffffffffffffffffff1602179055505b6000600c5482111561216b5762032b04905061219e565b600d54821115612180576202fdf0905061219d565b600e54821115612195576202d0e6905061219c565b6202a3dc90505b5b5b60006040518060e00160405280838152602001848152602001428152602001600081526020016000815260200160008152602001600015158152509050600760003373ffffffffffffffffffffffffffffffffffffffff1673ffffffffffffffffffffffffffffffffffffffff168152602001908152602001600020819080600181540180825580915050600190039060005260206000209060070201600090919091909150600082015181600001556020820151816001015560408201518160020155606082015181600301556080820151816004015560a0820151816005015560c08201518160060160006101000a81548160ff021916908315150217905550505082600860003373ffffffffffffffffffffffffffffffffffffffff1673ffffffffffffffffffffffffffffffffffffffff16815260200190815260200160002060008282546122f19190612960565b9250508190555050505050565b505050565b505050565b6040518060e001604052806000815260200160008152602001600081526020016000815260200160008152602001600081526020016000151581525090565b600081519050919050565b600082825260208201905092915050565b60005b83811015612381578082015181840152602081019050612366565b83811115612390576000848401525b50505050565b6000601f19601f8301169050919050565b60006123b282612347565b6123bc8185612352565b93506123cc818560208601612363565b6123d581612396565b840191505092915050565b600060208201905081810360008301526123fa81846123a7565b905092915050565b600080fd5b600073ffffffffffffffffffffffffffffffffffffffff82169050919050565b600061243282612407565b9050919050565b61244281612427565b811461244d57600080fd5b50565b60008135905061245f81612439565b92915050565b6000819050919050565b61247881612465565b811461248357600080fd5b50565b6000813590506124958161246f565b92915050565b600080604083850312156124b2576124b1612402565b5b60006124c085828601612450565b92505060206124d185828601612486565b9150509250929050565b60008115159050919050565b6124f0816124db565b82525050565b600060208201905061250b60008301846124e7565b92915050565b60006020828403121561252757612526612402565b5b600061253584828501612450565b91505092915050565b61254781612465565b82525050565b6000602082019050612562600083018461253e565b92915050565b60008060006060848603121561258157612580612402565b5b600061258f86828701612450565b93505060206125a086828701612486565b92505060406125b186828701612486565b9150509250925092565b6000806000606084860312156125d4576125d3612402565b5b60006125e286828701612450565b93505060206125f386828701612450565b925050604061260486828701612486565b9150509250925092565b600060ff82169050919050565b6126248161260e565b82525050565b600060208201905061263f600083018461261b565b92915050565b61264e81612427565b82525050565b60006020820190506126696000830184612645565b92915050565b60006020828403121561268557612684612402565b5b600061269384828501612486565b91505092915050565b6126a581612465565b82525050565b6126b4816124db565b82525050565b60e0820160008201516126d0600085018261269c565b5060208201516126e3602085018261269c565b5060408201516126f6604085018261269c565b506060820151612709606085018261269c565b50608082015161271c608085018261269c565b5060a082015161272f60a085018261269c565b5060c082015161274260c08501826126ab565b50505050565b600060e08201905061275d60008301846126ba565b92915050565b6000806040838503121561277a57612779612402565b5b600061278885828601612450565b925050602061279985828601612450565b9150509250929050565b7f4e487b7100000000000000000000000000000000000000000000000000000000600052602260045260246000fd5b600060028204905060018216806127ea57607f821691505b602082108114156127fe576127fd6127a3565b5b50919050565b7f4f776e61626c653a2063616c6c6572206973206e6f7420746865206f776e6572600082015250565b600061283a602083612352565b915061284582612804565b602082019050919050565b600060208201905081810360008301526128698161282d565b9050919050565b7f4e487b7100000000000000000000000000000000000000000000000000000000600052603260045260246000fd5b7f45524332303a207472616e7366657220616d6f756e742065786365656473206160008201527f6c6c6f77616e6365000000000000000000000000000000000000000000000000602082015250565b60006128fb602883612352565b91506129068261289f565b604082019050919050565b6000602082019050818103600083015261292a816128ee565b9050919050565b7f4e487b7100000000000000000000000000000000000000000000000000000000600052601160045260246000fd5b600061296b82612465565b915061297683612465565b9250827fffffffffffffffffffffffffffffffffffffffffffffffffffffffffffffffff038211156129ab576129aa612931565b5b828201905092915050565b7f596f75206e65656420746f2062652061205374616b65686f6c64657220746f2060008201527f646f207468617400000000000000000000000000000000000000000000000000602082015250565b6000612a12602783612352565b9150612a1d826129b6565b604082019050919050565b60006020820190508181036000830152612a4181612a05565b9050919050565b6000612a5382612465565b9150612a5e83612465565b925082821015612a7157612a70612931565b5b828203905092915050565b6000612a8782612465565b91507fffffffffffffffffffffffffffffffffffffffffffffffffffffffffffffffff821415612aba57612ab9612931565b5b600182019050919050565b7f596f7520686176656e742077697468647261777320666f72207468697320746960008201527f6d652c2074727920616761696e206c6174657200000000000000000000000000602082015250565b6000612b21603383612352565b9150612b2c82612ac5565b604082019050919050565b60006020820190508181036000830152612b5081612b14565b9050919050565b7f45524332303a2064656372656173656420616c6c6f77616e63652062656c6f7760008201527f207a65726f000000000000000000000000000000000000000000000000000000602082015250565b6000612bb3602583612352565b9150612bbe82612b57565b604082019050919050565b60006020820190508181036000830152612be281612ba6565b9050919050565b7f4f776e61626c653a206e6577206f776e657220697320746865207a65726f206160008201527f6464726573730000000000000000000000000000000000000000000000000000602082015250565b6000612c45602683612352565b9150612c5082612be9565b604082019050919050565b60006020820190508181036000830152612c7481612c38565b9050919050565b7f416d6f756e7420746f207769746864726177206e65656420746f206265206c6560008201527f7373207468616e20300000000000000000000000000000000000000000000000602082015250565b6000612cd7602983612352565b9150612ce282612c7b565b604082019050919050565b60006020820190508181036000830152612d0681612cca565b9050919050565b7f596f752063616e74207769746864726177207468697320616d6f756e7420726560008201527f7761726400000000000000000000000000000000000000000000000000000000602082015250565b6000612d69602483612352565b9150612d7482612d0d565b604082019050919050565b60006020820190508181036000830152612d9881612d5c565b9050919050565b7f45524332303a20617070726f76652066726f6d20746865207a65726f2061646460008201527f7265737300000000000000000000000000000000000000000000000000000000602082015250565b6000612dfb602483612352565b9150612e0682612d9f565b604082019050919050565b60006020820190508181036000830152612e2a81612dee565b9050919050565b7f45524332303a20617070726f766520746f20746865207a65726f20616464726560008201527f7373000000000000000000000000000000000000000000000000000000000000602082015250565b6000612e8d602283612352565b9150612e9882612e31565b604082019050919050565b60006020820190508181036000830152612ebc81612e80565b9050919050565b6000612ece82612465565b9150612ed983612465565b9250817fffffffffffffffffffffffffffffffffffffffffffffffffffffffffffffffff0483118215151615612f1257612f11612931565b5b828202905092915050565b7f4e487b7100000000000000000000000000000000000000000000000000000000600052601260045260246000fd5b6000612f5782612465565b9150612f6283612465565b925082612f7257612f71612f1d565b5b828204905092915050565b7f45524332303a207472616e736665722066726f6d20746865207a65726f20616460008201527f6472657373000000000000000000000000000000000000000000000000000000602082015250565b6000612fd9602583612352565b9150612fe482612f7d565b604082019050919050565b6000602082019050818103600083015261300881612fcc565b9050919050565b7f45524332303a207472616e7366657220746f20746865207a65726f206164647260008201527f6573730000000000000000000000000000000000000000000000000000000000602082015250565b600061306b602383612352565b91506130768261300f565b604082019050919050565b6000602082019050818103600083015261309a8161305e565b9050919050565b7f45524332303a207472616e7366657220616d6f756e742065786365656473206260008201527f616c616e63650000000000000000000000000000000000000000000000000000602082015250565b60006130fd602683612352565b9150613108826130a1565b604082019050919050565b6000602082019050818103600083015261312c816130f0565b9050919050565b7f45524332303a206d696e7420746f20746865207a65726f206164647265737300600082015250565b6000613169601f83612352565b915061317482613133565b602082019050919050565b600060208201905081810360008301526131988161315c565b9050919050565b7f45524332303a206275726e2066726f6d20746865207a65726f2061646472657360008201527f7300000000000000000000000000000000000000000000000000000000000000602082015250565b60006131fb602183612352565b91506132068261319f565b604082019050919050565b6000602082019050818103600083015261322a816131ee565b9050919050565b7f45524332303a206275726e20616d6f756e7420657863656564732062616c616e60008201527f6365000000000000000000000000000000000000000000000000000000000000602082015250565b600061328d602283612352565b915061329882613231565b604082019050919050565b600060208201905081810360008301526132bc81613280565b905091905056fea264697066735822122054610763753d92a1ccd39a991ad34ca52fe28289736e5972f9081a2659e02aa864736f6c634300080a0033",
  "immutableReferences": {},
  "source": "// SPDX-License-Identifier: MIT\npragma solidity ^0.8.0;\n\nimport \"@openzeppelin/contracts/access/Ownable.sol\";\nimport \"@openzeppelin/contracts/token/ERC20/ERC20.sol\";\nimport \"@openzeppelin/contracts/utils/math/SafeMath.sol\";\n\n\ncontract StakingToken is ERC20, Ownable {\n    using SafeMath for uint256;\n\n    struct Stake {\n        uint rate;\n        uint amount;\n        uint sinceStaking;\n        uint sinceClaimed;\n        uint withdrawnAmount;\n        uint toWithdraw;\n        bool rewarded;\n    }\n\n    address[] private stakeHolders;\n    mapping(address => Stake[]) private stakes;\n    mapping(address => uint) private stakesSummary;\n    mapping(address => uint) private rewards;\n\n    uint private _period = 1 hours;\n    uint8 private _decimals = 18;\n\n    uint public RATE1 = 1500 * (10**_decimals);\n    uint public RATE2 = 1000 * (10**_decimals);\n    uint public RATE3 = 100 * (10**_decimals);\n\n    constructor(address _owner, uint initialSupply) ERC20(\"MyCoolToken\", \"MCT\") {\n        _mint(_owner, initialSupply);\n    }\n\n    function stake(uint amount) external {\n        _burn(msg.sender, amount);\n        addToHolders(msg.sender, amount);\n    }\n\n    function isStakeHolder(address _stakeHoleder) internal view returns (bool) {\n        return stakes[_stakeHoleder].length > 0;\n    }\n\n    function addToHolders(address _stakeHoleder, uint amount) internal {\n        if (!isStakeHolder(_stakeHoleder)) stakeHolders.push(_stakeHoleder);\n        uint stakeRate;\n        if (amount > RATE1) stakeRate = 207620;      // 18% per year\n        else if (amount > RATE2) stakeRate = 196080; // 17% per year\n        else if (amount > RATE3) stakeRate = 184550; // 16% per year\n        else stakeRate = 173020;                       // 15% per year\n        Stake memory newStake = Stake(stakeRate, amount, block.timestamp, 0, 0, 0, false);\n        stakes[msg.sender].push(newStake);\n        stakesSummary[msg.sender] += amount;\n    }\n\n    function stakeOf(address _stakeHoleder) public view returns(uint) {\n        return stakesSummary[_stakeHoleder];\n    }\n\n    function countOfStakes(address _stakeHoleder) public view returns(uint) {\n        return stakes[_stakeHoleder].length;\n    }\n\n    function getStake(address _stakeHoleder, uint stakeIndex) public view returns(Stake memory) {\n        return stakes[_stakeHoleder][stakeIndex];\n    }\n\n    function calculatePeriod(address _stakeHoleder, uint stakeIndex) public view returns(uint) {\n        Stake memory _stake = getStake(_stakeHoleder, stakeIndex);\n        uint period = block.timestamp.sub(_stake.sinceStaking).div(3600);\n        return period;\n    }\n\n    function calculateReward(address _stakeHoleder, uint stakeIndex) public view returns(uint) {\n        Stake memory _stake = getStake(_stakeHoleder, stakeIndex);\n        uint period = calculatePeriod(_stakeHoleder, stakeIndex);\n        return _stake.amount.mul(_stake.rate).mul(period).div(10000000000).sub(_stake.withdrawnAmount);\n    }\n\n    function calculateClaim(address _stakeHoleder) internal view returns (uint){\n        Stake[] memory _stakes = stakes[_stakeHoleder];\n\n        uint reward = 0;\n        uint stakeCount = _stakes.length;\n\n        for(uint i = 0; i < stakeCount; i++)\n            reward = reward.add(calculateReward(_stakeHoleder, i));\n\n        return reward;\n    }\n\n    function claim() external onlyStakeHolder view returns (uint) {\n        return calculateClaim(msg.sender);\n    }\n\n    function claimAndWithdraw(uint amount) external onlyStakeHolder {\n        require(amount > 0, \"Amount to withdraw need to be less than 0\");\n        uint forReward;\n        uint stakeReward;\n        uint rewardToWithdraw = 0;\n        for (uint i = 0; i < stakes[msg.sender].length; i++) {\n            if (rewardToWithdraw == amount) break;\n\n            stakeReward = calculateReward(msg.sender, i);\n            forReward = rewardToWithdraw.add(stakeReward);\n            if (forReward > amount) {\n                forReward = forReward.sub(forReward.sub(amount));\n                rewardToWithdraw = forReward;\n            } else {\n                rewardToWithdraw = forReward;\n            }\n            stakes[msg.sender][i].toWithdraw = forReward;\n            stakes[msg.sender][i].sinceClaimed = block.timestamp;\n        }\n        require(amount == rewardToWithdraw, \"You cant withdraw this amount reward\");\n    }\n\n    function withdraw() external onlyStakeHolder {\n        uint toWithdraw = 0;\n        uint rewardToWithdraw = 0;\n        for (uint i = 0; i < stakes[msg.sender].length; i++) {\n            if (block.timestamp - stakes[msg.sender][i].sinceClaimed < 1 days) continue;\n            toWithdraw = stakes[msg.sender][i].toWithdraw;\n            rewardToWithdraw = rewardToWithdraw.add(toWithdraw);\n            stakes[msg.sender][i].toWithdraw = 0;\n            stakes[msg.sender][i].withdrawnAmount += toWithdraw;\n            stakes[msg.sender][i].sinceClaimed = 0;\n        }\n        require(rewardToWithdraw > 0, \"You havent withdraws for this time, try again later\");\n        _mint(msg.sender, rewardToWithdraw);\n    }\n\n    /* MODIFIERS */\n    modifier onlyStakeHolder {\n        require(isStakeHolder(msg.sender), \"You need to be a Stakeholder to do that\");\n        _;\n    }\n\n    /* TEST FUNCTIN */\n\n    function _setHoursForStake(address _stakeHoleder, uint stakeIndex, uint _hours) onlyOwner public {\n        stakes[_stakeHoleder][stakeIndex].sinceStaking = block.timestamp.sub(_hours.mul(3600));\n    }\n\n    function _setHoursForClaimed(address _stakeHoleder, uint stakeIndex, uint _hours) onlyOwner public {\n        stakes[_stakeHoleder][stakeIndex].sinceClaimed = block.timestamp.sub(_hours.mul(3600));\n    }\n}",
  "sourcePath": "/Users/truffle/Documents/Projects/ethereum/test/contracts/StakingToken.sol",
  "compiler": {
    "name": "solc",
    "version": "0.8.10+commit.fc410830.Emscripten.clang"
  },
  "schemaVersion": "3.4.3",
  "updatedAt": "2021-11-25T10:06:46.438Z",
  "devdoc": {
    "kind": "dev",
    "methods": {
      "allowance(address,address)": {
        "details": "See {IERC20-allowance}."
      },
      "approve(address,uint256)": {
        "details": "See {IERC20-approve}. Requirements: - `spender` cannot be the zero address."
      },
      "balanceOf(address)": {
        "details": "See {IERC20-balanceOf}."
      },
      "decimals()": {
        "details": "Returns the number of decimals used to get its user representation. For example, if `decimals` equals `2`, a balance of `505` tokens should be displayed to a user as `5.05` (`505 / 10 ** 2`). Tokens usually opt for a value of 18, imitating the relationship between Ether and Wei. This is the value {ERC20} uses, unless this function is overridden; NOTE: This information is only used for _display_ purposes: it in no way affects any of the arithmetic of the contract, including {IERC20-balanceOf} and {IERC20-transfer}."
      },
      "decreaseAllowance(address,uint256)": {
        "details": "Atomically decreases the allowance granted to `spender` by the caller. This is an alternative to {approve} that can be used as a mitigation for problems described in {IERC20-approve}. Emits an {Approval} event indicating the updated allowance. Requirements: - `spender` cannot be the zero address. - `spender` must have allowance for the caller of at least `subtractedValue`."
      },
      "increaseAllowance(address,uint256)": {
        "details": "Atomically increases the allowance granted to `spender` by the caller. This is an alternative to {approve} that can be used as a mitigation for problems described in {IERC20-approve}. Emits an {Approval} event indicating the updated allowance. Requirements: - `spender` cannot be the zero address."
      },
      "name()": {
        "details": "Returns the name of the token."
      },
      "owner()": {
        "details": "Returns the address of the current owner."
      },
      "renounceOwnership()": {
        "details": "Leaves the contract without owner. It will not be possible to call `onlyOwner` functions anymore. Can only be called by the current owner. NOTE: Renouncing ownership will leave the contract without an owner, thereby removing any functionality that is only available to the owner."
      },
      "symbol()": {
        "details": "Returns the symbol of the token, usually a shorter version of the name."
      },
      "totalSupply()": {
        "details": "See {IERC20-totalSupply}."
      },
      "transfer(address,uint256)": {
        "details": "See {IERC20-transfer}. Requirements: - `recipient` cannot be the zero address. - the caller must have a balance of at least `amount`."
      },
      "transferFrom(address,address,uint256)": {
        "details": "See {IERC20-transferFrom}. Emits an {Approval} event indicating the updated allowance. This is not required by the EIP. See the note at the beginning of {ERC20}. Requirements: - `sender` and `recipient` cannot be the zero address. - `sender` must have a balance of at least `amount`. - the caller must have allowance for ``sender``'s tokens of at least `amount`."
      },
      "transferOwnership(address)": {
        "details": "Transfers ownership of the contract to a new account (`newOwner`). Can only be called by the current owner."
      }
    },
    "version": 1
  },
  "userdoc": {
    "kind": "user",
    "methods": {},
    "version": 1
  }
}