{
  "contractName": "Token",
  "abi": [
    {
      "inputs": [
        {
          "internalType": "address",
          "name": "_owner",
          "type": "address"
        },
        {
          "internalType": "uint256",
          "name": "initialSupply",
          "type": "uint256"
        }
      ],
      "stateMutability": "nonpayable",
      "type": "constructor"
    },
    {
      "anonymous": false,
      "inputs": [
        {
          "indexed": true,
          "internalType": "address",
          "name": "owner",
          "type": "address"
        },
        {
          "indexed": true,
          "internalType": "address",
          "name": "spender",
          "type": "address"
        },
        {
          "indexed": false,
          "internalType": "uint256",
          "name": "value",
          "type": "uint256"
        }
      ],
      "name": "Approval",
      "type": "event"
    },
    {
      "anonymous": false,
      "inputs": [
        {
          "indexed": true,
          "internalType": "address",
          "name": "previousOwner",
          "type": "address"
        },
        {
          "indexed": true,
          "internalType": "address",
          "name": "newOwner",
          "type": "address"
        }
      ],
      "name": "OwnershipTransferred",
      "type": "event"
    },
    {
      "anonymous": false,
      "inputs": [
        {
          "indexed": true,
          "internalType": "address",
          "name": "from",
          "type": "address"
        },
        {
          "indexed": true,
          "internalType": "address",
          "name": "to",
          "type": "address"
        },
        {
          "indexed": false,
          "internalType": "uint256",
          "name": "value",
          "type": "uint256"
        }
      ],
      "name": "Transfer",
      "type": "event"
    },
    {
      "inputs": [],
      "name": "RATE1",
      "outputs": [
        {
          "internalType": "uint256",
          "name": "",
          "type": "uint256"
        }
      ],
      "stateMutability": "view",
      "type": "function"
    },
    {
      "inputs": [],
      "name": "RATE2",
      "outputs": [
        {
          "internalType": "uint256",
          "name": "",
          "type": "uint256"
        }
      ],
      "stateMutability": "view",
      "type": "function"
    },
    {
      "inputs": [],
      "name": "RATE3",
      "outputs": [
        {
          "internalType": "uint256",
          "name": "",
          "type": "uint256"
        }
      ],
      "stateMutability": "view",
      "type": "function"
    },
    {
      "inputs": [
        {
          "internalType": "address",
          "name": "owner",
          "type": "address"
        },
        {
          "internalType": "address",
          "name": "spender",
          "type": "address"
        }
      ],
      "name": "allowance",
      "outputs": [
        {
          "internalType": "uint256",
          "name": "",
          "type": "uint256"
        }
      ],
      "stateMutability": "view",
      "type": "function"
    },
    {
      "inputs": [
        {
          "internalType": "address",
          "name": "spender",
          "type": "address"
        },
        {
          "internalType": "uint256",
          "name": "amount",
          "type": "uint256"
        }
      ],
      "name": "approve",
      "outputs": [
        {
          "internalType": "bool",
          "name": "",
          "type": "bool"
        }
      ],
      "stateMutability": "nonpayable",
      "type": "function"
    },
    {
      "inputs": [
        {
          "internalType": "address",
          "name": "account",
          "type": "address"
        }
      ],
      "name": "balanceOf",
      "outputs": [
        {
          "internalType": "uint256",
          "name": "",
          "type": "uint256"
        }
      ],
      "stateMutability": "view",
      "type": "function"
    },
    {
      "inputs": [],
      "name": "decimals",
      "outputs": [
        {
          "internalType": "uint8",
          "name": "",
          "type": "uint8"
        }
      ],
      "stateMutability": "view",
      "type": "function"
    },
    {
      "inputs": [
        {
          "internalType": "address",
          "name": "spender",
          "type": "address"
        },
        {
          "internalType": "uint256",
          "name": "subtractedValue",
          "type": "uint256"
        }
      ],
      "name": "decreaseAllowance",
      "outputs": [
        {
          "internalType": "bool",
          "name": "",
          "type": "bool"
        }
      ],
      "stateMutability": "nonpayable",
      "type": "function"
    },
    {
      "inputs": [
        {
          "internalType": "address",
          "name": "stakeHolder",
          "type": "address"
        }
      ],
      "name": "getStake",
      "outputs": [
        {
          "components": [
            {
              "internalType": "uint256",
              "name": "rate",
              "type": "uint256"
            },
            {
              "internalType": "uint256",
              "name": "amount",
              "type": "uint256"
            },
            {
              "internalType": "uint256",
              "name": "sinceStaking",
              "type": "uint256"
            },
            {
              "internalType": "uint256",
              "name": "sinceClaimed",
              "type": "uint256"
            },
            {
              "internalType": "uint256",
              "name": "withdrawnAmount",
              "type": "uint256"
            },
            {
              "internalType": "uint256",
              "name": "toWithdraw",
              "type": "uint256"
            }
          ],
          "internalType": "struct StakeableToken.Stake",
          "name": "",
          "type": "tuple"
        }
      ],
      "stateMutability": "view",
      "type": "function"
    },
    {
      "inputs": [
        {
          "internalType": "address",
          "name": "spender",
          "type": "address"
        },
        {
          "internalType": "uint256",
          "name": "addedValue",
          "type": "uint256"
        }
      ],
      "name": "increaseAllowance",
      "outputs": [
        {
          "internalType": "bool",
          "name": "",
          "type": "bool"
        }
      ],
      "stateMutability": "nonpayable",
      "type": "function"
    },
    {
      "inputs": [],
      "name": "name",
      "outputs": [
        {
          "internalType": "string",
          "name": "",
          "type": "string"
        }
      ],
      "stateMutability": "view",
      "type": "function"
    },
    {
      "inputs": [],
      "name": "owner",
      "outputs": [
        {
          "internalType": "address",
          "name": "",
          "type": "address"
        }
      ],
      "stateMutability": "view",
      "type": "function"
    },
    {
      "inputs": [],
      "name": "renounceOwnership",
      "outputs": [],
      "stateMutability": "nonpayable",
      "type": "function"
    },
    {
      "inputs": [
        {
          "internalType": "address",
          "name": "stakeHolder",
          "type": "address"
        },
        {
          "internalType": "uint256",
          "name": "_hours",
          "type": "uint256"
        }
      ],
      "name": "setHoursForClaimed",
      "outputs": [],
      "stateMutability": "nonpayable",
      "type": "function"
    },
    {
      "inputs": [
        {
          "internalType": "address",
          "name": "stakeHolder",
          "type": "address"
        },
        {
          "internalType": "uint256",
          "name": "_hours",
          "type": "uint256"
        }
      ],
      "name": "setHoursForStake",
      "outputs": [],
      "stateMutability": "nonpayable",
      "type": "function"
    },
    {
      "inputs": [
        {
          "internalType": "address",
          "name": "stakeHolder",
          "type": "address"
        }
      ],
      "name": "stakeOf",
      "outputs": [
        {
          "internalType": "uint256",
          "name": "",
          "type": "uint256"
        }
      ],
      "stateMutability": "view",
      "type": "function"
    },
    {
      "inputs": [],
      "name": "symbol",
      "outputs": [
        {
          "internalType": "string",
          "name": "",
          "type": "string"
        }
      ],
      "stateMutability": "view",
      "type": "function"
    },
    {
      "inputs": [],
      "name": "totalSupply",
      "outputs": [
        {
          "internalType": "uint256",
          "name": "",
          "type": "uint256"
        }
      ],
      "stateMutability": "view",
      "type": "function"
    },
    {
      "inputs": [
        {
          "internalType": "address",
          "name": "recipient",
          "type": "address"
        },
        {
          "internalType": "uint256",
          "name": "amount",
          "type": "uint256"
        }
      ],
      "name": "transfer",
      "outputs": [
        {
          "internalType": "bool",
          "name": "",
          "type": "bool"
        }
      ],
      "stateMutability": "nonpayable",
      "type": "function"
    },
    {
      "inputs": [
        {
          "internalType": "address",
          "name": "sender",
          "type": "address"
        },
        {
          "internalType": "address",
          "name": "recipient",
          "type": "address"
        },
        {
          "internalType": "uint256",
          "name": "amount",
          "type": "uint256"
        }
      ],
      "name": "transferFrom",
      "outputs": [
        {
          "internalType": "bool",
          "name": "",
          "type": "bool"
        }
      ],
      "stateMutability": "nonpayable",
      "type": "function"
    },
    {
      "inputs": [
        {
          "internalType": "address",
          "name": "newOwner",
          "type": "address"
        }
      ],
      "name": "transferOwnership",
      "outputs": [],
      "stateMutability": "nonpayable",
      "type": "function"
    },
    {
      "inputs": [
        {
          "internalType": "uint256",
          "name": "amount",
          "type": "uint256"
        }
      ],
      "name": "stake",
      "outputs": [],
      "stateMutability": "nonpayable",
      "type": "function"
    },
    {
      "inputs": [],
      "name": "claim",
      "outputs": [
        {
          "internalType": "uint256",
          "name": "",
          "type": "uint256"
        }
      ],
      "stateMutability": "view",
      "type": "function"
    },
    {
      "inputs": [
        {
          "internalType": "uint256",
          "name": "amount",
          "type": "uint256"
        }
      ],
      "name": "claimAndWithdraw",
      "outputs": [],
      "stateMutability": "nonpayable",
      "type": "function"
    },
    {
      "inputs": [],
      "name": "withdraw",
      "outputs": [],
      "stateMutability": "nonpayable",
      "type": "function"
    }
  ],
  "bytecode": "0x60806040526012600860006101000a81548160ff021916908360ff160217905550600860009054906101000a900460ff16600a6200003e919062000657565b6105dc6200004d9190620006a8565b600955600860009054906101000a900460ff16600a6200006e919062000657565b6103e86200007d9190620006a8565b600a55600860009054906101000a900460ff16600a6200009e919062000657565b6064620000ac9190620006a8565b600b55348015620000bc57600080fd5b506040516200366a3803806200366a8339818101604052810190620000e29190620007a4565b6040518060400160405280600b81526020017f4d79436f6f6c546f6b656e0000000000000000000000000000000000000000008152506040518060400160405280600381526020017f4d435400000000000000000000000000000000000000000000000000000000008152508160039080519060200190620001669291906200040d565b5080600490805190602001906200017f9291906200040d565b505050620001a262000196620001bc60201b60201c565b620001c460201b60201c565b620001b482826200028a60201b60201c565b50506200095e565b600033905090565b6000600560009054906101000a900473ffffffffffffffffffffffffffffffffffffffff16905081600560006101000a81548173ffffffffffffffffffffffffffffffffffffffff021916908373ffffffffffffffffffffffffffffffffffffffff1602179055508173ffffffffffffffffffffffffffffffffffffffff168173ffffffffffffffffffffffffffffffffffffffff167f8be0079c531659141344cd1fd0a4f28419497f9722a3daafe3b4186f6b6457e060405160405180910390a35050565b600073ffffffffffffffffffffffffffffffffffffffff168273ffffffffffffffffffffffffffffffffffffffff161415620002fd576040517f08c379a0000000000000000000000000000000000000000000000000000000008152600401620002f4906200084c565b60405180910390fd5b62000311600083836200040360201b60201c565b80600260008282546200032591906200086e565b92505081905550806000808473ffffffffffffffffffffffffffffffffffffffff1673ffffffffffffffffffffffffffffffffffffffff16815260200190815260200160002060008282546200037c91906200086e565b925050819055508173ffffffffffffffffffffffffffffffffffffffff16600073ffffffffffffffffffffffffffffffffffffffff167fddf252ad1be2c89b69c2b068fc378daa952ba7f163c4a11628f55a4df523b3ef83604051620003e39190620008dc565b60405180910390a3620003ff600083836200040860201b60201c565b5050565b505050565b505050565b8280546200041b9062000928565b90600052602060002090601f0160209004810192826200043f57600085556200048b565b82601f106200045a57805160ff19168380011785556200048b565b828001600101855582156200048b579182015b828111156200048a5782518255916020019190600101906200046d565b5b5090506200049a91906200049e565b5090565b5b80821115620004b95760008160009055506001016200049f565b5090565b7f4e487b7100000000000000000000000000000000000000000000000000000000600052601160045260246000fd5b60008160011c9050919050565b6000808291508390505b60018511156200054b57808604811115620005235762000522620004bd565b5b6001851615620005335780820291505b80810290506200054385620004ec565b945062000503565b94509492505050565b60008262000566576001905062000639565b8162000576576000905062000639565b81600181146200058f57600281146200059a57620005d0565b600191505062000639565b60ff841115620005af57620005ae620004bd565b5b8360020a915084821115620005c957620005c8620004bd565b5b5062000639565b5060208310610133831016604e8410600b84101617156200060a5782820a905083811115620006045762000603620004bd565b5b62000639565b620006198484846001620004f9565b92509050818404811115620006335762000632620004bd565b5b81810290505b9392505050565b6000819050919050565b600060ff82169050919050565b6000620006648262000640565b915062000671836200064a565b9250620006a07fffffffffffffffffffffffffffffffffffffffffffffffffffffffffffffffff848462000554565b905092915050565b6000620006b58262000640565b9150620006c28362000640565b9250817fffffffffffffffffffffffffffffffffffffffffffffffffffffffffffffffff0483118215151615620006fe57620006fd620004bd565b5b828202905092915050565b600080fd5b600073ffffffffffffffffffffffffffffffffffffffff82169050919050565b60006200073b826200070e565b9050919050565b6200074d816200072e565b81146200075957600080fd5b50565b6000815190506200076d8162000742565b92915050565b6200077e8162000640565b81146200078a57600080fd5b50565b6000815190506200079e8162000773565b92915050565b60008060408385031215620007be57620007bd62000709565b5b6000620007ce858286016200075c565b9250506020620007e1858286016200078d565b9150509250929050565b600082825260208201905092915050565b7f45524332303a206d696e7420746f20746865207a65726f206164647265737300600082015250565b600062000834601f83620007eb565b91506200084182620007fc565b602082019050919050565b60006020820190508181036000830152620008678162000825565b9050919050565b60006200087b8262000640565b9150620008888362000640565b9250827fffffffffffffffffffffffffffffffffffffffffffffffffffffffffffffffff03821115620008c057620008bf620004bd565b5b828201905092915050565b620008d68162000640565b82525050565b6000602082019050620008f36000830184620008cb565b92915050565b7f4e487b7100000000000000000000000000000000000000000000000000000000600052602260045260246000fd5b600060028204905060018216806200094157607f821691505b60208210811415620009585762000957620008f9565b5b50919050565b612cfc806200096e6000396000f3fe608060405234801561001057600080fd5b50600436106101735760003560e01c8063715018a6116100de578063a694fc3a11610097578063dd62ed3e11610071578063dd62ed3e14610450578063f2b4020914610480578063f2fde38b1461049e578063f62b46c9146104ba57610173565b8063a694fc3a146103e6578063a9059cbb14610402578063ccf4b70a1461043257610173565b8063715018a614610322578063733570181461032c5780637a7664601461034a5780638da5cb5b1461037a57806395d89b4114610398578063a457c2d7146103b657610173565b8063313ce56711610130578063313ce5671461024c578063395093511461026a5780633ccfd60b1461029a57806342623360146102a45780634e71d92d146102d457806370a08231146102f257610173565b806306fdde03146101785780630798bdb414610196578063095ea7b3146101b257806314263079146101e257806318160ddd146101fe57806323b872dd1461021c575b600080fd5b6101806104d6565b60405161018d9190611ed0565b60405180910390f35b6101b060048036038101906101ab9190611f8b565b610568565b005b6101cc60048036038101906101c79190611f8b565b610655565b6040516101d99190611fe6565b60405180910390f35b6101fc60048036038101906101f79190611f8b565b610673565b005b610206610760565b6040516102139190612010565b60405180910390f35b6102366004803603810190610231919061202b565b61076a565b6040516102439190611fe6565b60405180910390f35b610254610862565b604051610261919061209a565b60405180910390f35b610284600480360381019061027f9190611f8b565b61086b565b6040516102919190611fe6565b60405180910390f35b6102a2610917565b005b6102be60048036038101906102b991906120b5565b610b2f565b6040516102cb9190612010565b60405180910390f35b6102dc610b7b565b6040516102e99190612010565b60405180910390f35b61030c600480360381019061030791906120b5565b610bd3565b6040516103199190612010565b60405180910390f35b61032a610c1b565b005b610334610ca3565b6040516103419190612010565b60405180910390f35b610364600480360381019061035f91906120b5565b610ca9565b604051610371919061216c565b60405180910390f35b610382610d3e565b60405161038f9190612196565b60405180910390f35b6103a0610d68565b6040516103ad9190611ed0565b60405180910390f35b6103d060048036038101906103cb9190611f8b565b610dfa565b6040516103dd9190611fe6565b60405180910390f35b61040060048036038101906103fb91906121b1565b610ee5565b005b61041c60048036038101906104179190611f8b565b610efc565b6040516104299190611fe6565b60405180910390f35b61043a610f1a565b6040516104479190612010565b60405180910390f35b61046a600480360381019061046591906121de565b610f20565b6040516104779190612010565b60405180910390f35b610488610fa7565b6040516104959190612010565b60405180910390f35b6104b860048036038101906104b391906120b5565b610fad565b005b6104d460048036038101906104cf91906121b1565b6110a5565b005b6060600380546104e59061224d565b80601f01602080910402602001604051908101604052809291908181526020018280546105119061224d565b801561055e5780601f106105335761010080835404028352916020019161055e565b820191906000526020600020905b81548152906001019060200180831161054157829003601f168201915b5050505050905090565b61057061124f565b73ffffffffffffffffffffffffffffffffffffffff1661058e610d3e565b73ffffffffffffffffffffffffffffffffffffffff16146105e4576040517f08c379a00000000000000000000000000000000000000000000000000000000081526004016105db906122cb565b60405180910390fd5b61060b6105fc610e108361125790919063ffffffff16565b4261126d90919063ffffffff16565b600660008473ffffffffffffffffffffffffffffffffffffffff1673ffffffffffffffffffffffffffffffffffffffff168152602001908152602001600020600301819055505050565b600061066961066261124f565b8484611283565b6001905092915050565b61067b61124f565b73ffffffffffffffffffffffffffffffffffffffff16610699610d3e565b73ffffffffffffffffffffffffffffffffffffffff16146106ef576040517f08c379a00000000000000000000000000000000000000000000000000000000081526004016106e6906122cb565b60405180910390fd5b610716610707610e108361125790919063ffffffff16565b4261126d90919063ffffffff16565b600660008473ffffffffffffffffffffffffffffffffffffffff1673ffffffffffffffffffffffffffffffffffffffff168152602001908152602001600020600201819055505050565b6000600254905090565b600061077784848461144e565b6000600160008673ffffffffffffffffffffffffffffffffffffffff1673ffffffffffffffffffffffffffffffffffffffff16815260200190815260200160002060006107c261124f565b73ffffffffffffffffffffffffffffffffffffffff1673ffffffffffffffffffffffffffffffffffffffff16815260200190815260200160002054905082811015610842576040517f08c379a00000000000000000000000000000000000000000000000000000000081526004016108399061235d565b60405180910390fd5b6108568561084e61124f565b858403611283565b60019150509392505050565b60006012905090565b600061090d61087861124f565b84846001600061088661124f565b73ffffffffffffffffffffffffffffffffffffffff1673ffffffffffffffffffffffffffffffffffffffff16815260200190815260200160002060008873ffffffffffffffffffffffffffffffffffffffff1673ffffffffffffffffffffffffffffffffffffffff1681526020019081526020016000205461090891906123ac565b611283565b6001905092915050565b610920336116cf565b61095f576040517f08c379a000000000000000000000000000000000000000000000000000000000815260040161095690612474565b60405180910390fd5b600062015180600660003373ffffffffffffffffffffffffffffffffffffffff1673ffffffffffffffffffffffffffffffffffffffff16815260200190815260200160002060030154426109b39190612494565b10156109f4576040517f08c379a00000000000000000000000000000000000000000000000000000000081526004016109eb9061253a565b60405180910390fd5b600660003373ffffffffffffffffffffffffffffffffffffffff1673ffffffffffffffffffffffffffffffffffffffff16815260200190815260200160002060050154905080600660003373ffffffffffffffffffffffffffffffffffffffff1673ffffffffffffffffffffffffffffffffffffffff1681526020019081526020016000206004016000828254610a8b91906123ac565b925050819055506000600660003373ffffffffffffffffffffffffffffffffffffffff1673ffffffffffffffffffffffffffffffffffffffff168152602001908152602001600020600501819055506000600660003373ffffffffffffffffffffffffffffffffffffffff1673ffffffffffffffffffffffffffffffffffffffff16815260200190815260200160002060030181905550610b2c3382611725565b50565b6000600660008373ffffffffffffffffffffffffffffffffffffffff1673ffffffffffffffffffffffffffffffffffffffff168152602001908152602001600020600101549050919050565b6000610b86336116cf565b610bc5576040517f08c379a0000000000000000000000000000000000000000000000000000000008152600401610bbc90612474565b60405180910390fd5b610bce33611885565b905090565b60008060008373ffffffffffffffffffffffffffffffffffffffff1673ffffffffffffffffffffffffffffffffffffffff168152602001908152602001600020549050919050565b610c2361124f565b73ffffffffffffffffffffffffffffffffffffffff16610c41610d3e565b73ffffffffffffffffffffffffffffffffffffffff1614610c97576040517f08c379a0000000000000000000000000000000000000000000000000000000008152600401610c8e906122cb565b60405180910390fd5b610ca16000611903565b565b600a5481565b610cb1611e01565b600660008373ffffffffffffffffffffffffffffffffffffffff1673ffffffffffffffffffffffffffffffffffffffff1681526020019081526020016000206040518060c001604052908160008201548152602001600182015481526020016002820154815260200160038201548152602001600482015481526020016005820154815250509050919050565b6000600560009054906101000a900473ffffffffffffffffffffffffffffffffffffffff16905090565b606060048054610d779061224d565b80601f0160208091040260200160405190810160405280929190818152602001828054610da39061224d565b8015610df05780601f10610dc557610100808354040283529160200191610df0565b820191906000526020600020905b815481529060010190602001808311610dd357829003601f168201915b5050505050905090565b60008060016000610e0961124f565b73ffffffffffffffffffffffffffffffffffffffff1673ffffffffffffffffffffffffffffffffffffffff16815260200190815260200160002060008573ffffffffffffffffffffffffffffffffffffffff1673ffffffffffffffffffffffffffffffffffffffff16815260200190815260200160002054905082811015610ec6576040517f08c379a0000000000000000000000000000000000000000000000000000000008152600401610ebd906125cc565b60405180910390fd5b610eda610ed161124f565b85858403611283565b600191505092915050565b610eef33826119c9565b610ef93382611ba0565b50565b6000610f10610f0961124f565b848461144e565b6001905092915050565b60095481565b6000600160008473ffffffffffffffffffffffffffffffffffffffff1673ffffffffffffffffffffffffffffffffffffffff16815260200190815260200160002060008373ffffffffffffffffffffffffffffffffffffffff1673ffffffffffffffffffffffffffffffffffffffff16815260200190815260200160002054905092915050565b600b5481565b610fb561124f565b73ffffffffffffffffffffffffffffffffffffffff16610fd3610d3e565b73ffffffffffffffffffffffffffffffffffffffff1614611029576040517f08c379a0000000000000000000000000000000000000000000000000000000008152600401611020906122cb565b60405180910390fd5b600073ffffffffffffffffffffffffffffffffffffffff168173ffffffffffffffffffffffffffffffffffffffff161415611099576040517f08c379a00000000000000000000000000000000000000000000000000000000081526004016110909061265e565b60405180910390fd5b6110a281611903565b50565b6110ae336116cf565b6110ed576040517f08c379a00000000000000000000000000000000000000000000000000000000081526004016110e490612474565b60405180910390fd5b60008111611130576040517f08c379a0000000000000000000000000000000000000000000000000000000008152600401611127906126f0565b60405180910390fd5b6000806000905061114033611885565b9150828211156111765761116f611160848461126d90919063ffffffff16565b8361126d90919063ffffffff16565b905061117a565b8190505b80600660003373ffffffffffffffffffffffffffffffffffffffff1673ffffffffffffffffffffffffffffffffffffffff1681526020019081526020016000206005018190555042600660003373ffffffffffffffffffffffffffffffffffffffff1673ffffffffffffffffffffffffffffffffffffffff1681526020019081526020016000206003018190555080831461124a576040517f08c379a000000000000000000000000000000000000000000000000000000000815260040161124190612782565b60405180910390fd5b505050565b600033905090565b6000818361126591906127a2565b905092915050565b6000818361127b9190612494565b905092915050565b600073ffffffffffffffffffffffffffffffffffffffff168373ffffffffffffffffffffffffffffffffffffffff1614156112f3576040517f08c379a00000000000000000000000000000000000000000000000000000000081526004016112ea9061286e565b60405180910390fd5b600073ffffffffffffffffffffffffffffffffffffffff168273ffffffffffffffffffffffffffffffffffffffff161415611363576040517f08c379a000000000000000000000000000000000000000000000000000000000815260040161135a90612900565b60405180910390fd5b80600160008573ffffffffffffffffffffffffffffffffffffffff1673ffffffffffffffffffffffffffffffffffffffff16815260200190815260200160002060008473ffffffffffffffffffffffffffffffffffffffff1673ffffffffffffffffffffffffffffffffffffffff168152602001908152602001600020819055508173ffffffffffffffffffffffffffffffffffffffff168373ffffffffffffffffffffffffffffffffffffffff167f8c5be1e5ebec7d5bd14f71427d1e84f3dd0314c0f7b2291e5b200ac8c7c3b925836040516114419190612010565b60405180910390a3505050565b600073ffffffffffffffffffffffffffffffffffffffff168373ffffffffffffffffffffffffffffffffffffffff1614156114be576040517f08c379a00000000000000000000000000000000000000000000000000000000081526004016114b590612992565b60405180910390fd5b600073ffffffffffffffffffffffffffffffffffffffff168273ffffffffffffffffffffffffffffffffffffffff16141561152e576040517f08c379a000000000000000000000000000000000000000000000000000000000815260040161152590612a24565b60405180910390fd5b611539838383611d36565b60008060008573ffffffffffffffffffffffffffffffffffffffff1673ffffffffffffffffffffffffffffffffffffffff168152602001908152602001600020549050818110156115bf576040517f08c379a00000000000000000000000000000000000000000000000000000000081526004016115b690612ab6565b60405180910390fd5b8181036000808673ffffffffffffffffffffffffffffffffffffffff1673ffffffffffffffffffffffffffffffffffffffff16815260200190815260200160002081905550816000808573ffffffffffffffffffffffffffffffffffffffff1673ffffffffffffffffffffffffffffffffffffffff168152602001908152602001600020600082825461165291906123ac565b925050819055508273ffffffffffffffffffffffffffffffffffffffff168473ffffffffffffffffffffffffffffffffffffffff167fddf252ad1be2c89b69c2b068fc378daa952ba7f163c4a11628f55a4df523b3ef846040516116b69190612010565b60405180910390a36116c9848484611d3b565b50505050565b6000600760008373ffffffffffffffffffffffffffffffffffffffff1673ffffffffffffffffffffffffffffffffffffffff16815260200190815260200160002060009054906101000a900460ff169050919050565b600073ffffffffffffffffffffffffffffffffffffffff168273ffffffffffffffffffffffffffffffffffffffff161415611795576040517f08c379a000000000000000000000000000000000000000000000000000000000815260040161178c90612b22565b60405180910390fd5b6117a160008383611d36565b80600260008282546117b391906123ac565b92505081905550806000808473ffffffffffffffffffffffffffffffffffffffff1673ffffffffffffffffffffffffffffffffffffffff168152602001908152602001600020600082825461180891906123ac565b925050819055508173ffffffffffffffffffffffffffffffffffffffff16600073ffffffffffffffffffffffffffffffffffffffff167fddf252ad1be2c89b69c2b068fc378daa952ba7f163c4a11628f55a4df523b3ef8360405161186d9190612010565b60405180910390a361188160008383611d3b565b5050565b60008061189183610ca9565b9050600061189e84611d40565b90506118fa82608001516118ec6402540be4006118de856118d08860000151896020015161125790919063ffffffff16565b61125790919063ffffffff16565b611d8190919063ffffffff16565b61126d90919063ffffffff16565b92505050919050565b6000600560009054906101000a900473ffffffffffffffffffffffffffffffffffffffff16905081600560006101000a81548173ffffffffffffffffffffffffffffffffffffffff021916908373ffffffffffffffffffffffffffffffffffffffff1602179055508173ffffffffffffffffffffffffffffffffffffffff168173ffffffffffffffffffffffffffffffffffffffff167f8be0079c531659141344cd1fd0a4f28419497f9722a3daafe3b4186f6b6457e060405160405180910390a35050565b600073ffffffffffffffffffffffffffffffffffffffff168273ffffffffffffffffffffffffffffffffffffffff161415611a39576040517f08c379a0000000000000000000000000000000000000000000000000000000008152600401611a3090612bb4565b60405180910390fd5b611a4582600083611d36565b60008060008473ffffffffffffffffffffffffffffffffffffffff1673ffffffffffffffffffffffffffffffffffffffff16815260200190815260200160002054905081811015611acb576040517f08c379a0000000000000000000000000000000000000000000000000000000008152600401611ac290612c46565b60405180910390fd5b8181036000808573ffffffffffffffffffffffffffffffffffffffff1673ffffffffffffffffffffffffffffffffffffffff168152602001908152602001600020819055508160026000828254611b229190612494565b92505081905550600073ffffffffffffffffffffffffffffffffffffffff168373ffffffffffffffffffffffffffffffffffffffff167fddf252ad1be2c89b69c2b068fc378daa952ba7f163c4a11628f55a4df523b3ef84604051611b879190612010565b60405180910390a3611b9b83600084611d3b565b505050565b611ba8611e01565b611bb1836116cf565b611c4c576001600760003373ffffffffffffffffffffffffffffffffffffffff1673ffffffffffffffffffffffffffffffffffffffff16815260200190815260200160002060006101000a81548160ff0219169083151502179055506040518060c00160405280611c2184611d97565b8152602001838152602001428152602001600081526020016000815260200160008152509050611cb2565b611c5583610ca9565b9050611c8882611c7a611c6786611885565b8460200151611deb90919063ffffffff16565b611deb90919063ffffffff16565b816020018181525050611c9e8160200151611d97565b816000018181525050428160400181815250505b80600660003373ffffffffffffffffffffffffffffffffffffffff1673ffffffffffffffffffffffffffffffffffffffff168152602001908152602001600020600082015181600001556020820151816001015560408201518160020155606082015181600301556080820151816004015560a08201518160050155905050505050565b505050565b505050565b600080611d4c83610ca9565b9050611d79610e10611d6b83604001514261126d90919063ffffffff16565b611d8190919063ffffffff16565b915050919050565b60008183611d8f9190612c95565b905092915050565b600080600954831115611daf5762032b049050611de2565b600a54831115611dc4576202fdf09050611de1565b600b54831115611dd9576202d0e69050611de0565b6202a3dc90505b5b5b80915050919050565b60008183611df991906123ac565b905092915050565b6040518060c001604052806000815260200160008152602001600081526020016000815260200160008152602001600081525090565b600081519050919050565b600082825260208201905092915050565b60005b83811015611e71578082015181840152602081019050611e56565b83811115611e80576000848401525b50505050565b6000601f19601f8301169050919050565b6000611ea282611e37565b611eac8185611e42565b9350611ebc818560208601611e53565b611ec581611e86565b840191505092915050565b60006020820190508181036000830152611eea8184611e97565b905092915050565b600080fd5b600073ffffffffffffffffffffffffffffffffffffffff82169050919050565b6000611f2282611ef7565b9050919050565b611f3281611f17565b8114611f3d57600080fd5b50565b600081359050611f4f81611f29565b92915050565b6000819050919050565b611f6881611f55565b8114611f7357600080fd5b50565b600081359050611f8581611f5f565b92915050565b60008060408385031215611fa257611fa1611ef2565b5b6000611fb085828601611f40565b9250506020611fc185828601611f76565b9150509250929050565b60008115159050919050565b611fe081611fcb565b82525050565b6000602082019050611ffb6000830184611fd7565b92915050565b61200a81611f55565b82525050565b60006020820190506120256000830184612001565b92915050565b60008060006060848603121561204457612043611ef2565b5b600061205286828701611f40565b935050602061206386828701611f40565b925050604061207486828701611f76565b9150509250925092565b600060ff82169050919050565b6120948161207e565b82525050565b60006020820190506120af600083018461208b565b92915050565b6000602082840312156120cb576120ca611ef2565b5b60006120d984828501611f40565b91505092915050565b6120eb81611f55565b82525050565b60c08201600082015161210760008501826120e2565b50602082015161211a60208501826120e2565b50604082015161212d60408501826120e2565b50606082015161214060608501826120e2565b50608082015161215360808501826120e2565b5060a082015161216660a08501826120e2565b50505050565b600060c08201905061218160008301846120f1565b92915050565b61219081611f17565b82525050565b60006020820190506121ab6000830184612187565b92915050565b6000602082840312156121c7576121c6611ef2565b5b60006121d584828501611f76565b91505092915050565b600080604083850312156121f5576121f4611ef2565b5b600061220385828601611f40565b925050602061221485828601611f40565b9150509250929050565b7f4e487b7100000000000000000000000000000000000000000000000000000000600052602260045260246000fd5b6000600282049050600182168061226557607f821691505b602082108114156122795761227861221e565b5b50919050565b7f4f776e61626c653a2063616c6c6572206973206e6f7420746865206f776e6572600082015250565b60006122b5602083611e42565b91506122c08261227f565b602082019050919050565b600060208201905081810360008301526122e4816122a8565b9050919050565b7f45524332303a207472616e7366657220616d6f756e742065786365656473206160008201527f6c6c6f77616e6365000000000000000000000000000000000000000000000000602082015250565b6000612347602883611e42565b9150612352826122eb565b604082019050919050565b600060208201905081810360008301526123768161233a565b9050919050565b7f4e487b7100000000000000000000000000000000000000000000000000000000600052601160045260246000fd5b60006123b782611f55565b91506123c283611f55565b9250827fffffffffffffffffffffffffffffffffffffffffffffffffffffffffffffffff038211156123f7576123f661237d565b5b828201905092915050565b7f596f75206e65656420746f2062652061205374616b65686f6c64657220746f2060008201527f646f207468617400000000000000000000000000000000000000000000000000602082015250565b600061245e602783611e42565b915061246982612402565b604082019050919050565b6000602082019050818103600083015261248d81612451565b9050919050565b600061249f82611f55565b91506124aa83611f55565b9250828210156124bd576124bc61237d565b5b828203905092915050565b7f4d696e696d756d207769746864726177206461746520616674657220636c616960008201527f6d2031206461792e000000000000000000000000000000000000000000000000602082015250565b6000612524602883611e42565b915061252f826124c8565b604082019050919050565b6000602082019050818103600083015261255381612517565b9050919050565b7f45524332303a2064656372656173656420616c6c6f77616e63652062656c6f7760008201527f207a65726f000000000000000000000000000000000000000000000000000000602082015250565b60006125b6602583611e42565b91506125c18261255a565b604082019050919050565b600060208201905081810360008301526125e5816125a9565b9050919050565b7f4f776e61626c653a206e6577206f776e657220697320746865207a65726f206160008201527f6464726573730000000000000000000000000000000000000000000000000000602082015250565b6000612648602683611e42565b9150612653826125ec565b604082019050919050565b600060208201905081810360008301526126778161263b565b9050919050565b7f416d6f756e7420746f207769746864726177206e65656420746f206265206c6560008201527f7373207468616e20300000000000000000000000000000000000000000000000602082015250565b60006126da602983611e42565b91506126e58261267e565b604082019050919050565b60006020820190508181036000830152612709816126cd565b9050919050565b7f596f752063616e74207769746864726177207468697320616d6f756e7420726560008201527f7761726400000000000000000000000000000000000000000000000000000000602082015250565b600061276c602483611e42565b915061277782612710565b604082019050919050565b6000602082019050818103600083015261279b8161275f565b9050919050565b60006127ad82611f55565b91506127b883611f55565b9250817fffffffffffffffffffffffffffffffffffffffffffffffffffffffffffffffff04831182151516156127f1576127f061237d565b5b828202905092915050565b7f45524332303a20617070726f76652066726f6d20746865207a65726f2061646460008201527f7265737300000000000000000000000000000000000000000000000000000000602082015250565b6000612858602483611e42565b9150612863826127fc565b604082019050919050565b600060208201905081810360008301526128878161284b565b9050919050565b7f45524332303a20617070726f766520746f20746865207a65726f20616464726560008201527f7373000000000000000000000000000000000000000000000000000000000000602082015250565b60006128ea602283611e42565b91506128f58261288e565b604082019050919050565b60006020820190508181036000830152612919816128dd565b9050919050565b7f45524332303a207472616e736665722066726f6d20746865207a65726f20616460008201527f6472657373000000000000000000000000000000000000000000000000000000602082015250565b600061297c602583611e42565b915061298782612920565b604082019050919050565b600060208201905081810360008301526129ab8161296f565b9050919050565b7f45524332303a207472616e7366657220746f20746865207a65726f206164647260008201527f6573730000000000000000000000000000000000000000000000000000000000602082015250565b6000612a0e602383611e42565b9150612a19826129b2565b604082019050919050565b60006020820190508181036000830152612a3d81612a01565b9050919050565b7f45524332303a207472616e7366657220616d6f756e742065786365656473206260008201527f616c616e63650000000000000000000000000000000000000000000000000000602082015250565b6000612aa0602683611e42565b9150612aab82612a44565b604082019050919050565b60006020820190508181036000830152612acf81612a93565b9050919050565b7f45524332303a206d696e7420746f20746865207a65726f206164647265737300600082015250565b6000612b0c601f83611e42565b9150612b1782612ad6565b602082019050919050565b60006020820190508181036000830152612b3b81612aff565b9050919050565b7f45524332303a206275726e2066726f6d20746865207a65726f2061646472657360008201527f7300000000000000000000000000000000000000000000000000000000000000602082015250565b6000612b9e602183611e42565b9150612ba982612b42565b604082019050919050565b60006020820190508181036000830152612bcd81612b91565b9050919050565b7f45524332303a206275726e20616d6f756e7420657863656564732062616c616e60008201527f6365000000000000000000000000000000000000000000000000000000000000602082015250565b6000612c30602283611e42565b9150612c3b82612bd4565b604082019050919050565b60006020820190508181036000830152612c5f81612c23565b9050919050565b7f4e487b7100000000000000000000000000000000000000000000000000000000600052601260045260246000fd5b6000612ca082611f55565b9150612cab83611f55565b925082612cbb57612cba612c66565b5b82820490509291505056fea264697066735822122024fec551f95ae9b4f2db9bf39990dd5928b793a561baf97300e67872035db3b764736f6c634300080a0033",
  "immutableReferences": {},
  "source": "// SPDX-License-Identifier: MIT\npragma solidity ^0.8.0;\n\nimport \"@openzeppelin/contracts/access/Ownable.sol\";\nimport \"@openzeppelin/contracts/token/ERC20/ERC20.sol\";\nimport \"@openzeppelin/contracts/utils/math/SafeMath.sol\";\nimport \"./StakeableToken.sol\";\nimport \"./Test.sol\";\n\ncontract Token is ERC20, Ownable, StakeableToken, Test {\n    using SafeMath for uint;\n    constructor(address _owner, uint256 initialSupply)\n        ERC20(\"MyCoolToken\", \"MCT\")\n    {\n        _mint(_owner, initialSupply);\n    }\n\n    function stake(uint256 amount) external {\n        _burn(msg.sender, amount);\n        _addToHolders(msg.sender, amount);\n    }\n\n    function claim() external view onlyStakeHolder returns (uint256) {\n        return _calculateReward(msg.sender);\n    }\n\n    function claimAndWithdraw(uint256 amount) external onlyStakeHolder {\n        require(amount > 0, \"Amount to withdraw need to be less than 0\");\n\n        uint256 stakeReward;\n        uint256 rewardToWithdraw = 0;\n\n        stakeReward = _calculateReward(msg.sender);\n        if (stakeReward > amount) {\n            rewardToWithdraw = stakeReward.sub(stakeReward.sub(amount));\n        } else {\n            rewardToWithdraw = stakeReward;\n        }\n        _stakes[msg.sender].toWithdraw = rewardToWithdraw;\n        _stakes[msg.sender].sinceClaimed = block.timestamp;\n\n        require(\n            amount == rewardToWithdraw,\n            \"You cant withdraw this amount reward\"\n        );\n    }\n\n    function withdraw() external onlyStakeHolder {\n        uint256 rewardToWithdraw = 0;\n\n        require(\n            block.timestamp - _stakes[msg.sender].sinceClaimed >= 1 days,\n            \"Minimum withdraw date after claim 1 day.\"\n        );\n        rewardToWithdraw = _stakes[msg.sender].toWithdraw;\n        _stakes[msg.sender].withdrawnAmount += rewardToWithdraw;\n        _stakes[msg.sender].toWithdraw = 0;\n        _stakes[msg.sender].sinceClaimed = 0;\n        _mint(msg.sender, rewardToWithdraw);\n    }\n}\n",
  "sourcePath": "/Users/truffle/Documents/Projects/ethereum/test/contracts/Token.sol",
  "compiler": {
    "name": "solc",
    "version": "0.8.10+commit.fc410830.Emscripten.clang"
  },
  "schemaVersion": "3.4.3",
  "updatedAt": "2021-11-25T17:38:01.939Z",
  "devdoc": {
    "kind": "dev",
    "methods": {
      "allowance(address,address)": {
        "details": "See {IERC20-allowance}."
      },
      "approve(address,uint256)": {
        "details": "See {IERC20-approve}. Requirements: - `spender` cannot be the zero address."
      },
      "balanceOf(address)": {
        "details": "See {IERC20-balanceOf}."
      },
      "decimals()": {
        "details": "Returns the number of decimals used to get its user representation. For example, if `decimals` equals `2`, a balance of `505` tokens should be displayed to a user as `5.05` (`505 / 10 ** 2`). Tokens usually opt for a value of 18, imitating the relationship between Ether and Wei. This is the value {ERC20} uses, unless this function is overridden; NOTE: This information is only used for _display_ purposes: it in no way affects any of the arithmetic of the contract, including {IERC20-balanceOf} and {IERC20-transfer}."
      },
      "decreaseAllowance(address,uint256)": {
        "details": "Atomically decreases the allowance granted to `spender` by the caller. This is an alternative to {approve} that can be used as a mitigation for problems described in {IERC20-approve}. Emits an {Approval} event indicating the updated allowance. Requirements: - `spender` cannot be the zero address. - `spender` must have allowance for the caller of at least `subtractedValue`."
      },
      "increaseAllowance(address,uint256)": {
        "details": "Atomically increases the allowance granted to `spender` by the caller. This is an alternative to {approve} that can be used as a mitigation for problems described in {IERC20-approve}. Emits an {Approval} event indicating the updated allowance. Requirements: - `spender` cannot be the zero address."
      },
      "name()": {
        "details": "Returns the name of the token."
      },
      "owner()": {
        "details": "Returns the address of the current owner."
      },
      "renounceOwnership()": {
        "details": "Leaves the contract without owner. It will not be possible to call `onlyOwner` functions anymore. Can only be called by the current owner. NOTE: Renouncing ownership will leave the contract without an owner, thereby removing any functionality that is only available to the owner."
      },
      "symbol()": {
        "details": "Returns the symbol of the token, usually a shorter version of the name."
      },
      "totalSupply()": {
        "details": "See {IERC20-totalSupply}."
      },
      "transfer(address,uint256)": {
        "details": "See {IERC20-transfer}. Requirements: - `recipient` cannot be the zero address. - the caller must have a balance of at least `amount`."
      },
      "transferFrom(address,address,uint256)": {
        "details": "See {IERC20-transferFrom}. Emits an {Approval} event indicating the updated allowance. This is not required by the EIP. See the note at the beginning of {ERC20}. Requirements: - `sender` and `recipient` cannot be the zero address. - `sender` must have a balance of at least `amount`. - the caller must have allowance for ``sender``'s tokens of at least `amount`."
      },
      "transferOwnership(address)": {
        "details": "Transfers ownership of the contract to a new account (`newOwner`). Can only be called by the current owner."
      }
    },
    "version": 1
  },
  "userdoc": {
    "kind": "user",
    "methods": {},
    "version": 1
  }
}